:10000000F5C700000C9427080C9427080C942708C7
:100010000C9427080C9427080C9427080C942708A4
:100020000C9427080C9427080C9427080C94270894
:100030000C9427080C9427080C9427080C94270884
:100040000C9427080C9427080C9427080C94270874
:10005000FEC70000FCC70000FAC700000C94303057
:10006000F6C700000C94B92E0C94902EF0C7000037
:10007000EEC70000ECC70000EAC70000E8C70000B8
:10008000E6C70000E4C70000E2C70000E0C70000C8
:10009000DEC70000DCC70000DAC700000C94E017E0
:1000A000D6C70000D4C70000D2C70000D0C70000E8
:1000B000CEC70000CCC70000CAC70000C8C70000F8
:1000C000C6C70000C4C70000C2C70000C0C7000008
:1000D000BEC70000BCC70000BAC70000B8C7000018
:1000E000B6C70000994EAB4EFE4E0D4F1C4F4D4F04
:1000F000624F10511A502D5088509750A650E8501A
:10010000FD5010510111101134115B118111971123
:100110007B12D411E21106122A12511269127B12BB
:100120000A2F0D2FFC2E002F062F442F112F152FD5
:100130001B2F1F2F232F292F2D2F312F442F372FE8
:100140003B2F3F2F08000000BE922449123EABAA6D
:10015000AA2ABECDCCCC4C3E00000080BEABAAAAE1
:10016000AA3E00000000BF000000803F0000000029
:1001700000084178D3BB4387D1133D190E3CC3BD62
:100180004282AD2B3E68EC8276BED98FE1A93E4C0F
:1001900080EFFFBE01C4FF7F3F0000000000076347
:1001A0004236B79BD8A71A39685618AEBAAB558CE9
:1001B0001D3CB7CC5763BD6DEDFD753EF617723132
:1001C000BF000000803F05A84CCDB2D44EB93836F0
:1001D000A9020C50B9918688083CA6AAAA2ABE009A
:1001E0000000803FDB40A4A62EAFDA0281DA128144
:1001F000DA02818F2000A1C8D300408DAED580A83F
:100200000102102020080810204010204080020128
:10021000020108040201010204081020408080400D
:10022000201008040201800402018040201008040C
:1002300002010804020101020408102040800102AA
:1002400004081020408000002200250028002B0018
:100250002E003100340002010000050108010B01ED
:1002600005050505070508080808020202020A0A32
:100270000808040404040101010101010101030350
:10028000030303030303040707070C0C0C0C0C0CFB
:100290000C0C0202020206060606060606060B0BF8
:1002A0000B0B0B0B0B0B00006000000000000000AC
:1002B00000000000000000E000000000000000005E
:1002C000000000000001E00000000000000000004D
:1002D0000000000001F0000000000000000000002D
:1002E00000000003F000000000000000000000001B
:1002F000000007F000000000000000000000000007
:100300000007F800000000000000000000000000EE
:100310000FF800000003C0007E000001E0007F0F26
:10032000F800000003C000FE000001E000FFEFF84D
:1003300000000003C000FE000001E000FFFFF80025
:10034000000003C000F00000000F007FFE7FC0002F
:100350000003C000F00000000F003FFE7FF83FF1F7
:10036000FBCFFCFEF3BC3DEFE01FFE7FFF7FFBFFFA
:10037000DFFEFEFFBC3DEFE01FC6FFFF7FFBFFDFA0
:10038000FEFEFFBC3DEFE00FE3C7FE787BC3DE1E41
:10039000F0FFBC3DEF0007FF87FC787BC3DE1EF05B
:1003A000F83C3DEF0001FFFFF0007BC3C01EF0F002
:1003B0003C3DEF0001F37FE03FFBC3CFFEF0F03C9C
:1003C0003DEF0003E33F807FFBC3DFFEF0F03C3DE9
:1003D000EF0007E73C00787BC3DE1EF0F03C3DEF0A
:1003E0000007FFBE00787BC3DE1EF0F03C3DEF004F
:1003F00007FFFE00787BC3DE1EF0F03C3DEF000FF0
:10040000FFFE007FFBFFDFFEF0F03FFDEFE00FFFA0
:10041000FF007FFBFFDFFEF0F03FFDEFE00FF9FF95
:10042000003E79F9CF9EF0F01F3DE7E01FF1FF009D
:1004300000000000000000000000001F80FF007F9F
:10044000FFFFFFFFFFFFFFFFFFE01C007F007FFFBC
:10045000FFFFFEB46D888D18E000001F007FFFFFD6
:10046000FFFE95AD7DB577E000000F007FFFFFFF39
:10047000FEA5AD9D8D19E0000006007FFFFFFFFE89
:10048000B5ADEDB57EE00000000000018000000089
:1004900000000000000003800000000000000000D9
:1004A0000007C000000000000000000007C00000BE
:1004B000000000000000000FC0000000000000006D
:1004C00000001FE00000000000000000001FE0002E
:1004D00000000000000000003FE0000000000000FD
:1004E0000000003FF00000000000000000007FF06E
:1004F000000000000000001FF87FF0000000000076
:1005000000003FFE7FF0000000000000003FFF7F82
:10051000F0000000000000001FFFFBE000000000F2
:100520000000000FFFF9FFC00000000000000FFFF7
:10053000F9FFF800000000000007FFF1FFFF0000D6
:100540000000000003FC73FFFF80000000000001BA
:10055000FE3FFFFF80000000000000FF1E0FFF00B5
:100560000000000000007FFE1FFC000000000000F3
:10057000003FFFFFF8000000000000000FDFFFE079
:10058000000000000000001F19FFC0000000000074
:1005900000003F3CFF00000000000000007E7CF8EF
:1005A00000000000000000007FFE7C000000000052
:1005B000000000FFFFFC0000000000000000FFFF43
:1005C000FE0000000000000000FFFFFE0000000031
:1005D00000000001FFEFFE0000000000000001FF2E
:1005E000CFFE0000000000000003FF07FE00000037
:1005F0000000000003FC07FE0000000000000003F4
:10060000F003FE00000000000000018000FE00007A
:1006100000000000000000007E000000000000005C
:100620000000003E000000000000000000000C0080
:100630000000000000078000FC000003C000000074
:10064000078001FC000003C0000000078001FC00DF
:100650000003C0000000078001E00000001E000051
:1006600000078001E00000001E007FE3F79FF9FD16
:10067000E7787BDFC0FFF7FFBFFDFDFF787BDFC0C2
:10068000FFF7FFBFFDFDFF787BDFC0F0F787BC3DC4
:10069000E1FF787BDE00F0F787BC3DE1F0787BDEA0
:1006A0000000F787803DE1E0787BDE007FF7879FE1
:1006B000FDE1E0787BDE00FFF787BFFDE1E0787BBE
:1006C000DE00F0F787BC3DE1E0787BDE00F0F787E5
:1006D000BC3DE1E0787BDE00F0F787BC3DE1E078EF
:1006E0007BDE00FFF7FFBFFDE1E07FFBDFC0FFF730
:1006F000FFBFFDE1E07FFBDFC07CF3F39F3DE1E066
:100700003E7BCFC00000000000000000000000FFA2
:10071000FFFFFFFFFFFFFFFFFFC0FFFFFFFFFD68C1
:10072000DB111A31C0FFFFFFFFFD2B5AFB6AEFC040
:10073000FFFFFFFFFD4B5B3B1A33C0FFFFFFFFFDD9
:100740006B5BDB6AFDC056616C75652066726F6D10
:1007500020454550524F4D004C6F6164696E6720D3
:10076000696E69742076616C756573004669726D97
:100770007761726520762E3A004444532041443913
:100780003931302041726475696E6F205368696534
:100790006C6420627920475241202620414643481C
:1007A0002E20286772612D616663682E636F6D2944
:1007B000004654573D004444535F436F72655F43A6
:1007C0006C6F636B3D002A465F4F55543D00616D71
:1007D000706C69747564655F64425F6F7574707581
:1007E000743D00667265715F6F75747075743D005D
:1007F0002A2A2A2A53696E676C6550726F66696C83
:1008000065467265714F75742A2A2A004654575FEF
:10081000414D3D00537465703D0053746570205226
:100820006174653D002A2A2A2A53617665414D5735
:1008300061766573546F52414D2A2A2A004752410E
:10084000264146434800416D706C69747564653A91
:10085000004672657175656E63792C205B487A5D20
:100860003A0044445320414439393130000B0C0DD7
:100870000F10111213141415151616161616151539
:100880001414131211100F0D0C0B0A09070605049E
:100890000302020101000000000001010202030442
:1008A000050607090A0B161616151514141312114E
:1008B000100F0D0C0B0A09070605040302020101C3
:1008C0000000000000010102020304050607090AF6
:1008D0000B0C0D0F10111213141415151616436C72
:1008E0006F636B4F66667365743D004441434375A7
:1008F0007272656E74496E6465783D004444535F5E
:10090000436F72655F436C6F636B3D004558545F86
:100910004F53435F467265713D0044697669646573
:1009200072496E6465783D005443584F5F46726566
:10093000715F496E6465783D00584F5F467265711E
:100940005F496E6465783D00436C6F636B536F75F0
:10095000726365496E6465783D0052656164696ED5
:100960006720636C6F636B2073657474696E677363
:100970002066726F6D20454550524F4D00436C6F9D
:10098000636B4F66667365743D0044414343757203
:1009900072656E74496E6465783D004444535F43EC
:1009A0006F72655F436C6F636B3D004558545F4FDA
:1009B00053435F467265713D0044697669646572B0
:1009C000496E6465783D005443584F5F46726571C7
:1009D0005F496E6465783D00584F5F467265715F90
:1009E000496E6465783D00436C6F636B536F75723D
:1009F0006365496E6465783D0053657474696E671C
:100A00002064656661756C7420636C6F636B207322
:100A1000657474696E67730000002000230026006F
:100A200029002C002F003200000100000301060104
:100A30000901000103070F1F3F7F0080C0E0F0F8AD
:100A4000FCFE00000000003E5B4F5B3E3E6B4F6BC8
:100A50003E1C3E7C3E1C183C7E3C181C577D571C9F
:100A60001C5E7F5E1C00183C1800FFE7C3E7FF0018
:100A700018241800FFE7DBE7FF30483A060E262966
:100A8000792926407F050507407F05253F5A3CE729
:100A90003C5A7F3E1C1C08081C1C3E7F14227F22EF
:100AA000145F5F005F5F06097F017F006689956ABA
:100AB000606060606094A2FFA29408047E04081045
:100AC000207E201008082A1C08081C2A08081E106E
:100AD0001010100C1E0C1E0C30383E3830060E3E26
:100AE0000E06000000000000005F00000007000785
:100AF00000147F147F14242A7F2A122313086462AF
:100B000036495620500008070300001C224100000F
:100B100041221C002A1C7F1C2A08083E080800806D
:100B20007030000808080808000060600020100805
:100B300004023E5149453E00427F40007249494906
:100B4000462141494D331814127F10274545453938
:100B50003C4A49493141211109073649494936463C
:100B60004949291E0000140000004034000000081C
:100B700014224114141414140041221408020159BF
:100B800009063E415D594E7C1211127C7F4949494C
:100B9000363E414141227F4141413E7F49494941E1
:100BA0007F090909013E414151737F0808087F0010
:100BB000417F41002040413F017F081422417F4096
:100BC0004040407F021C027F7F0408107F3E41416D
:100BD000413E7F090909063E4151215E7F091929DD
:100BE00046264949493203017F01033F4040403FC7
:100BF0001F2040201F3F4038403F63140814630308
:100C0000047804036159494D43007F414141020486
:100C1000081020004141417F04020102044040408D
:100C20004040000307080020545478407F28444483
:100C3000383844444428384444287F38545454189D
:100C400000087E090218A4A49C787F080404780098
:100C5000447D40002040403D007F1028440000417A
:100C60007F40007C047804787C080404783844448D
:100C70004438FC1824241818242418FC7C08040484
:100C800008485454542404043F44243C4040207CED
:100C90001C2040201C3C4030403C44281028444C40
:100CA0009090907C4464544C44000836410000000D
:100CB000770000004136080002010204023C2623AE
:100CC000263C1EA1A161123A4040207A3854545566
:100CD0005921555579412254547842215554784030
:100CE00020545579400C1E527212395555555939B8
:100CF0005454545939555454580000457C4100020D
:100D0000457D420001457C407D1211127DF0282571
:100D100028F07C545545002054547C547C0A097FAB
:100D20004932494949323A4444443A324A484830BF
:100D30003A4141217A3A42402078009DA0A07D3D71
:100D40004242423D3D4040403D3C24FF2424487EF9
:100D50004943662B2FFC2F2BFF0929F620C0887EE4
:100D6000090320545479410000447D413048484AE9
:100D700032384040227A007A0A0A727D0D19317D9C
:100D80002629292F28262929292630484D40203870
:100D90000808080808080808382F10C8ACBA2F102F
:100DA0002834FA00007B000008142A142222142A96
:100DB00014085500550055AA55AA55AAFF55FF55C8
:100DC000FF000000FF00101010FF00141414FF00BB
:100DD0001010FF00FF1010F010F0141414FC001499
:100DE00014F700FF0000FF00FF1414F404FC1414B7
:100DF00017101F10101F101F1414141F00101010B4
:100E0000F0000000001F101010101F10101010F044
:100E100010000000FF101010101010101010FF1024
:100E2000000000FF140000FF00FF00001F1017006B
:100E300000FC04F414141710171414F404F4000044
:100E4000FF00F714141414141414F700F7141414F6
:100E5000171410101F101F141414F4141010F01095
:100E6000F000001F101F0000001F14000000FC1401
:100E70000000F010F01010FF10FF141414FF1410F5
:100E800010101F00000000F010FFFFFFFFFFF0F048
:100E9000F0F0F0FFFFFF0000000000FFFF0F0F0F5A
:100EA0000F0F3844443844FC4A4A4A347E02020652
:100EB00006027E027E0263554941633844443C0485
:100EC000407E201E2006027E020299A5E7A5991CFD
:100ED0002A492A1C4C7201724C304A4D4D30304820
:100EE000784830BC625A463D3E494949007E01017E
:100EF000017E2A2A2A2A2A44445F444440514A4413
:100F00004040444A51400000FF0103E080FF0000E0
:100F100008086B6B083612362436060F090F0600D8
:100F20000018180000001010003040FF0101001FE1
:100F300001011E00191D1712003C3C3C3C00000042
:100F4000000000002100240027002A002D003000AE
:100F5000330001010000040107010A0100000A0B2F
:100F600002090C0D0E080703040100000000000038
:100F70000000000000000000000000000000000071
:100F8000000000000000000012111000000000002E
:100F90000000000000000000000000000000000051
:100FA0000000504C4C204D756C7469706C69657212
:100FB0003D004444535F436F72655F436C6F636BE6
:100FC0003D005265665F436C6B3D00446976696421
:100FD00065723D00504C4C3D004444535F496E697E
:100FE00074002200FF2100000455CE5411241FBEBE
:100FF000CFEFD1E2DEBFCDBF00E00CBF28E0AEEA0C
:10100000B5E001C01D92AB31B207E1F715E0A0E0F9
:10101000B2E0E4E9F3EC00E00BBF02C007900D92F0
:10102000AE3AB107D9F717E0C5EFD7E000E006C048
:1010300021970109802FFE010E941A5BC43FD1074E
:1010400080E00807A9F70E94C5470C94B9610C9489
:1010500000000F931F93CF93DF93CDB7DEB72C978C
:101060000FB6F894DEBF0FBECDBF8C01CB010A973F
:101070004AE08A35910538F4CE0107960E94702D1A
:1010800063EA74E009C06A307105F4F4CE01079692
:101090000E94702D62EA74E0CE0101960E94C02D7C
:1010A000BE01695F7F4FCE0101960E943B2DBC01BE
:1010B000C8010E94A72DCE0101960E946B2DCE0182
:1010C00007960E946B2D03C0C8010E94702DC801B5
:1010D0002C960FB6F894DEBF0FBECDBFDF91CF9137
:1010E0001F910F910895CF92DF92EF92FF92CF93CD
:1010F000DF93EB01FA01DC0120E432E44FE050E041
:101100000E94285B6B017C0128EE33E0DE010E9427
:10111000225BAB01BC014C0D5D1D6E1D7F1DCF011F
:10112000FF0FAA0BBB0B480F591F6A1F7B1F405AAA
:1011300056486140710981E041365F4B614C734212
:1011400008F080E0DF91CF91FF90EF90DF90CF909B
:101150000895CF92DF92EF92FF920F931F93CF9358
:10116000DF9300D000D0CDB7DEB70E94B14422E0BB
:10117000F22EF092A707F092A80701E010E010937A
:10118000A6070093A5071093A4070093A307109246
:10119000A00710929F071092A2071092A107EE24B9
:1011A000E394E092AB0762E678E083E997E00E947F
:1011B000802EE092A707E092A8071093A60700935D
:1011C000A5071093A4070093A3071092A0071092FD
:1011D0009F0780E190E09093A2078093A10761E5CB
:1011E00078E083E997E00E94802EF092A707F092C2
:1011F000A8078091CB059091CC05892B49F41092DA
:10120000A4071092A3071093A6070093A50708C090
:101210001093A6070093A5071093A4070093A307B4
:1012200001E010E01093A00700939F078AE190E08F
:101230009093A2078093A1076091C5057091C605A0
:10124000CE01019606DFCE0101960E94D144CE0167
:1012500001960E946B2D8091CB059091CC05813039
:10126000910549F41092A4071092A3079093A60742
:101270008093A50708C01093A6070093A5071093B5
:10128000A4070093A3076091C7057091C805CE011C
:101290000196DFDECE0101960E94D144CE01019677
:1012A0000E946B2D8091CB059091CC05029759F44B
:1012B0001092A4071092A30781E090E09093A607F4
:1012C0008093A5070AC081E090E09093A6078093E1
:1012D000A5079093A4078093A3076091C905709117
:1012E000CA05CE010196B5DECE0101960E94D14419
:1012F00083E997E00E94452ECE0101960E946B2D56
:1013000081E08093A7078093A80701E010E0109385
:10131000A6070093A5071093A4070093A3071092B4
:10132000A00710929F078AE290E09093A207809313
:10133000A10766E478E083E997E00E945C2E65EA05
:1013400074E083E997E00E945A2E8091CB0590913A
:10135000CC05049749F41092A4071092A3071093A8
:10136000A6070093A50708C01093A6070093A5073A
:101370001093A4070093A307209106083091070853
:1013800046E0429FC001439F900D1124865D984F17
:101390000E94D14483E997E00E94452EEE24E39415
:1013A000F12C00E410E024E430E04AE250E064E490
:1013B00070E083E997E00E94402582E08093A707D0
:1013C0008093A80781E090E09093A6078093A507FB
:1013D0009093A4078093A3079093A00780939F07FF
:1013E00082E390E09093A2078093A1078091CB05C0
:1013F0009091CC05039721F41092A4071092A307B3
:101400008091060890910708019729F01092DE0557
:101410001092DD0550C06091000870910108072E00
:10142000000C880B990B0E94195620E030E048EC24
:1014300052E40E94D35720E030E040E85FE30E948E
:101440005C5726E637EF44E65EE30E9478569B0140
:10145000AC010E94785620E030E048E452E40E945B
:10146000D3572FE632E143E85AE30E94D3570E9454
:10147000385920E030E040E251E40E9478566B0198
:101480007C0120E030E0A9010E94345920E030E0E6
:1014900040E05FE387FD05C0C701B6010E945C57CD
:1014A00004C0C701B6010E945B570E947558709333
:1014B000DE056093DD058091B7059091B805892B15
:1014C000B1F460EA74E083E997E00E945A2E6091DB
:1014D000C3057091C4058091DD059091DE05680F0C
:1014E000791F77FF34C071956195710930C02091E3
:1014F000C3053091C40584E090E0821B930B2091DA
:10150000DD053091DE05821B930B181619061CF4BD
:101510006CEA74E002C060EA74E083E997E00E943C
:101520005A2E8091C3059091C4052091DD0530911C
:10153000DE0564E070E0681B790B621B730B161606
:1015400017062CF0BC0164507109620F731FCE01A5
:1015500001967FDDCE0101960E94D144CE01019615
:101560000E946B2DFF24F394F092A707F092A80736
:1015700001E010E01093A6070093A5071093A407BD
:101580000093A30780E390E09093A00780939F07C8
:1015900088E3C82ED12CD092A207C092A1076EEA90
:1015A00074E083E997E00E94492EF092A707F09239
:1015B000A8071093A6070093A5071093A40700930C
:1015C000A30788E490E09093A00780939F07D092B0
:1015D000A207C092A1076DE378E083E997E00E943B
:1015E000802E0E94044326960FB6F894DEBF0FBEED
:1015F000CDBFDF91CF911F910F91FF90EF90DF90C2
:10160000CF9008952F923F924F925F926F927F9268
:101610008F929F92AF92BF92CF92DF92EF92FF9202
:101620000F931F93CF93DF93CDB7DEB7C454D10987
:101630000FB6F894DEBF0FBECDBF80910608909123
:1016400007088130910509F43FC18230910509F402
:1016500028C3892B09F003C58090C3059090C40569
:10166000919481949108E091C705F091C805A091EB
:10167000C505B091C60520E432E44FE050E00E9479
:10168000285B2B013C0128EE33E0DF010E94225B46
:10169000460E571E681E791E8091C9059091CA0595
:1016A000092E000CAA0BBB0B480E591E6A1E7B1E8E
:1016B00060EF77E08DE896E00E94802E63EE77E0A1
:1016C0008DE896E00E945C2EC301B2010E94693E43
:1016D0006EEC77E08DE896E00E945C2EC4010E94DB
:1016E0007C3E60E08AE00E94452F1092080810922C
:1016F000090810920A0810920B0882E080930C08E7
:1017000065E070E088E098E00E948F3D61E08AE04B
:101710000E94452F0E9442400E94D73F6B017C01EE
:10172000B301A201CE0101960E949A233B802C8036
:10173000AD80AA8EBE80BE8E0F810AA318851EA31F
:1017400029852AA73A853BA7B701A601CE010196B4
:101750000E949A23AB80BC80CD80DE80EF80F8842D
:1017600009851A854FEF5FEFBA01CE0101960E94FD
:101770009A232B813C814D815E816F81788589859B
:101780009A850E942837A32CB22CCA8CDE8CEAA042
:10179000FEA00AA51BA50E94333400E00E94A83DCC
:1017A0006093D9057093DA058093DB059093DC058F
:1017B00089ED95E09093D8058093D70566EC77E0A6
:1017C0008DE896E00E945C2EC301B2010E94693E42
:1017D00066EB77E08DE896E00E945C2E6091000257
:1017E0007091010280910202909103020E94693E71
:1017F00061EB77E08DE896E00E945C2E6091D90560
:101800007091DA058091DB059091DC050E94693EBC
:1018100060E08AE00E94452F8EE080930808B401C2
:10182000990C880B990B0E94195625E733E948EA71
:1018300052E40E945C5720E030E040EA51E40E940C
:10184000D3579B01AC0160E070E080E291E40E941C
:1018500083590E947A587093090860930A0810927D
:101860000B0810920C08E091D705F091D805838100
:1018700080930D08828180930E08818180930F08E8
:1018800080818093100869E070E088E098E00E9411
:101890008F3D61E08AE00E94452F0E94424062EB4A
:1018A00074E08DE896E00E945A2E80E090E00E945D
:1018B0007C3E60E084E00E94452F60E083E00E946F
:1018C000452F60E082E0C7C30091C3051091C405B5
:1018D00011950195110980910008909101084C0122
:1018E000990FAA08BB088A8E9B8EAC8EBD8EA091E4
:1018F0000408B091050828EE33E00E94225BC090F6
:101900000208D09003080D2C000CEE08FF08C60E4C
:10191000D71EE81EF91EE091C705F091C805A091F9
:10192000C505B091C60520E432E44FE050E00E94C6
:10193000285B4B015C0128EE33E0DF010E94225B53
:10194000AB01BC01480D591D6A1D7B1D8091C90565
:101950009091CA05092E000CAA0BBB0B4A015B0132
:10196000880E991EAA1EBB1E8E8E9F8EA8A2B9A29B
:1019700065E278E08DE896E00E94802E68EB74E0E6
:101980008DE896E00E945A2E6E8D7F8D88A199A1D8
:101990000E94693E63EC74E08DE896E00E945A2E46
:1019A000C701B6010E94693E6AEC74E08DE896E0DA
:1019B0000E945A2E6A8D7B8D8C8D9D8D0E94693E72
:1019C000B801110F880B990B0E94195625E733E9CE
:1019D00048EA52E40E945C5720E030E040EA51E4DB
:1019E0000E94D3579B01AC0160E070E080E291E47B
:1019F0000E9483590E947A585B0188EE93E0988F89
:101A00008F8B1B861C861D861E861F86188A198A48
:101A10001A8AA7019601BE01655F7F4FCE014796E6
:101A20000E94983E6AE178E08DE896E00E945C2E84
:101A30006B857C858D859E850E94693E64E178E09A
:101A40008DE896E00E945C2E6F89788D80E090E0B2
:101A50000E94693E0F89188D2B853C854D855E85DA
:101A60006F85788989899A890E9436426F89788D35
:101A700080E090E00E9417569B01AC0160E070E0AE
:101A800084EB93E40E94D3576AA37BA38CA39DA30A
:101A900060E08AE00E94452F86E1898F61E070E076
:101AA000CE0149960E948F3DC12CD12C760100E0D9
:101AB00010E0950140E050E02EA33FA348A759A7AE
:101AC0008F89988D0817190708F06CC02BED3FE03F
:101AD00049E450E4C701B6010E94785620E030E0A6
:101AE00044E353E40E94D3570E94CF592B013C0199
:101AF0006EA17FA188A599A50E9417564B015C0194
:101B000020E030E040E85FE3C301B2010E945C578F
:101B10009B01AC01C501B4010E94785620E030E081
:101B200040E05FE30E9478562B013C016A8D7B8D7B
:101B30008C8D9D8D0E94175620E030E048EC52E4D9
:101B40000E94D3579B01AC01C301B2010E94785699
:101B50009B01AC01C501B4010E945B570E947A58F9
:101B60004B015C010E94693E42E1880C991CAA1C51
:101B7000BB1C4A95D1F7BB8AAC8A1D8A1E8A64E0D9
:101B800070E0CE0143960E948F3D2AA13BA14CA15B
:101B90005DA1C701B6010E945C576B017C010F5F1C
:101BA0001F4F8ECF61E08AE00E94452F0E94424085
:101BB00060E08AE00E94452F1092080880EC809334
:101BC000090810920A0810920B0882E080930C0812
:101BD00065E070E088E098E00E948F3D61E08AE077
:101BE0000E94452F0E94424060E08AE00E94452FFB
:101BF00087E0809308080E94D73F6B017C014E8DDF
:101C00005F8D68A179A1CE0101960E949A234B8035
:101C10005C806D807E808F80988439842A84B701AF
:101C2000A601CE0101960E949A23AB80BC80CD8094
:101C3000DE80EF80F88409851A854FEF5FEFBA01E7
:101C4000CE0101960E949A232B813C814D815E81B9
:101C50006F81788589859A850E94283752016301B2
:101C60007401032D122D0E94333400E00E94A83D20
:101C7000162F072FF82EE92E6CE078E08DE896E01D
:101C80000E945C2E612F702F8F2D9E2D0E94693E29
:101C9000E0920908F0920A0800930B0810930C08D0
:101CA000D2C1A091FE07B091FF0728EE33E00E9459
:101CB000225B2091FC073091FD078901330F220B35
:101CC000330B4B015C01800E911EA21EB31E8A8E47
:101CD0009B8EAC8EBD8EA0910408B091050828EEB5
:101CE00033E00E94225BC0900208D09003080D2CC4
:101CF000000CEE08FF08C60ED71EE81EF91EE09184
:101D0000C705F091C805A091C505B091C60520E4AE
:101D100032E44FE050E00E94285B4B015C0128EE6A
:101D200033E0DF010E94225BAB01BC01480D591D6D
:101D30006A1D7B1D8091C9059091CA05092E000C72
:101D4000AA0BBB0B4A015B01880E991EAA1EBB1E83
:101D50008E8E9F8EA8A2B9A288EE93E0988F8F8B6B
:101D60001B861C861D861E861F86188A198A1A8A5B
:101D7000A7019601BE01655F7F4FCE0147960E9485
:101D8000983E0F89188D2B853C854D855E856F8526
:101D9000788989899A890E9436426F89788D80E096
:101DA00090E00E9417569B01AC0160E070E084EB6C
:101DB00093E40E94D3576AA37BA38CA39DA360E006
:101DC0008AE00E94452F86E1898F61E070E0CE01B4
:101DD00049960E948F3D0E94D73FAB01BC018E0106
:101DE0000F5F1F4FC8010E949A239B809FAA8C807F
:101DF00088AE9D8099AE8E808AAE9F809BAE88848F
:101E00008CAE99849DAE8A848EAE4FEF5FEFBA019F
:101E1000C8010E949A239B809FA68C8088AA9D80DF
:101E200099AA8E808AAA9F809BAA88848CAA99846A
:101E30009DAA8A848EAA412C512C3201812C912C8E
:101E40000FAF21961FAF21978F89988D881699061D
:101E500008F08FC02BED3FE049E450E4C301B2012C
:101E60000E94785620E030E044E353E40E94D357C8
:101E70000E94CF599B01AC016E8D7F8D88A199A1E5
:101E800022962FAF229723963FAF239724964FAFEA
:101E9000249725965FAF25970E9417566B017C010A
:101EA0006A8D7B8D8C8D9D8D0E94175622962FAD4D
:101EB000229723963FAD239724964FAD24972596DE
:101EC0005FAD25970E9478569B01AC01C701B60112
:101ED0000E945C570E947A58AB01BC018FAD2196DD
:101EE0009FAD21970E949A233B80AC80AEA2BD801B
:101EF000BAA62E80CF80CBA6D884DCA6E984EDA636
:101F0000FA84FEA6AFA8B8ACC9ACDAACEBACFCACBA
:101F10000DAD1EAD2FA538A949A95AA96BA97CA959
:101F20008DA99EA90E942837A32CBEA0CAA4D22C9A
:101F3000EBA4FCA40DA51EA50E94333400E00E9472
:101F4000A83D9B8B8C8B7D8B6E8B64E070E0CE010B
:101F500043960E948F3D2AA13BA14CA15DA1C301E4
:101F6000B2010E945C572B013C010FEF801A900ACE
:101F70006BCF61E08AE00E94452F0E94424063EDF2
:101F800074E08DE896E00E94492E6091C30570913F
:101F9000C40500271127061B170B60E08AE00E948A
:101FA000452F1092080880E88093090810920A08CB
:101FB00082E080930B0880930C0865E070E088E075
:101FC00098E00E948F3D61E08AE00E94452F0E94C8
:101FD0004240B801110F880B990B0E94195625E752
:101FE00033E948EA52E40E945C5720E030E040EADE
:101FF00051E40E94D3579B01AC0160E070E080E2A5
:1020000091E40E9483590E947A586B017C0160E040
:102010008AE00E94452F89E0809308081092090801
:1020200010920A08C60126E0969587952A95E1F751
:1020300080930B08CC0CDD1CCC0CDD1C1CEFC122EA
:10204000DD24C0920C0865E070E088E098E00E9412
:102050008F3D61E08AE00E94452F0E944240CC5BA8
:10206000DF4F0FB6F894DEBF0FBECDBFDF91CF912B
:102070001F910F91FF90EF90DF90CF90BF90AF90A6
:102080009F908F907F906F905F904F903F902F9098
:1020900008952F923F924F925F926F927F928F920C
:1020A0009F92AF92BF92CF92DF92EF92FF920F93E7
:1020B0001F93CF93DF93CDB7DEB72A970FB6F8946F
:1020C000DEBF0FBECDBF89E190E0A0E0B0E080931D
:1020D000580790935907A0935A07B0935B078093D2
:1020E0003F0790934007A0934107B0934207812C8C
:1020F000912C412C512CCC24C394D12C47EE242E6E
:1021000043E0342E54E6652E712C8091570790E001
:10211000909313028093120280913E0790E0909377
:102120001102809310028EE697E00E94112485E54B
:1021300097E00E9411248CE397E00E941124809183
:102140006E0790916F07892B49F08091DF05909180
:10215000E00501969093E0058093DF058091DF050F
:102160009091E005079724F01092E0051092DF05AA
:1021700020910608309107082115310569F48091F6
:10218000DF059091E0050197B1F485E090E0909330
:10219000E0058093DF050FC02130310561F48091A7
:1021A000DF059091E005049731F4E5E0F0E0F0936D
:1021B000E005E093DF058091550790915607009761
:1021C00009F02C0180915707F1E04F16510419F4E2
:1021D0008111BEC008C09FEF4916590609F0B8C06A
:1021E000882309F4B5C0E091DF05F091E005E73000
:1021F000F10508F0ADC08827EE57FF4F8F4F0C94C4
:102200001A5B2F5F3F4F233031052CF430930708C2
:10221000209306089DC0109207081092060898C0E7
:1022200080910408909105080196853691052CF45B
:10223000909305088093040804C01092050810923A
:1022400004088091040890910508892B09F080C04A
:1022500080910208909103080A970CF079C0D092FF
:102260000508C092040874C0809102089091030888
:102270000196883EE3E09E072CF490930308809338
:10228000020804C01092030810920208809104080A
:1022900090910508892B09F05BC08091020890910C
:1022A00003080A970CF054C08AE090E0909303086A
:1022B000809302084DC02130310571F480910008EF
:1022C000909101080196853691050CF4FCC310929B
:1022D0000108109200083CC022303105C9F58091F8
:1022E000FE079091FF070196853691052CF4909397
:1022F000FF078093FE072CC01092FF071092FE0785
:1023000027C02230310521F58091FC079091FD070F
:102310000196883EE3E09E072CF49093FD0780939E
:10232000FC0716C01092FD071092FC0711C00E9416
:102330009F420E94F11B66D968EE73E080E090E056
:102340000E94B02F86E090E09093E0058093DF0537
:1023500080915707811102C0412C512C80913C077C
:1023600090913D07009709F04C0180913E0791E064
:102370008916910419F48111E0C008C0EFEF8E16A0
:102380009E0609F0DAC0882309F4D7C0E091DF0582
:10239000F091E005E730F10508F0CFC08827E75756
:1023A000FF4F8F4F0C941A5B80910608909107089D
:1023B000019797FF02C082E090E090930708809316
:1023C0000608BBC08091040890910508019797FD0D
:1023D00005C0909305088093040804C07092050816
:1023E0006092040880910408909105081816190657
:1023F0000CF4A3C080910208909103080A970CF096
:102400009CC0709205086092040897C080910208F1
:1024100090910308019797FD05C09093030880935E
:10242000020804C030920308209202088091040838
:1024300090910508181619060CF47FC080910208C7
:10244000909103080A970CF078C03092030820920C
:10245000020873C0809106089091070881309105A9
:1024600061F48091000890910108019797FF61C085
:10247000709201086092000860C0029709F05DC088
:102480008091FE079091FF07019797FD05C09093FB
:10249000FF078093FE0751C07092FF076092FE070E
:1024A0004CC08091060890910708029709F045C03A
:1024B0008091FC079091FD07019797FD05C09093CF
:1024C000FD078093FC0739C03092FD072092FC077E
:1024D00034C00E949F420E94F11B94D868EE73E0C2
:1024E00080E090E00E94B02FE6E0F0E0F093E0059D
:1024F000E093DF0522C00E94A9080E94C14282D851
:102500002A960FB6F894DEBF0FBECDBFDF91CF91F4
:102510001F910F91FF90EF90DF90CF90BF90AF9001
:102520009F908F907F906F905F904F903F902F90F3
:102530000895909301088093000880913E078111CF
:1025400002C0812C912C80915707282F30E04091B8
:102550001202509113024217530719F0811101C062
:1025600051D880913E07282F30E0409110025091C1
:1025700011024217530719F0811101C043D80E947C
:10258000B1448091060890910708019741F080912D
:10259000060890910708029709F0CCC05AC003E2E0
:1025A00010E0C8018D57974F5C01FC01449150E049
:1025B000485D5F4F21E030E0B80183E997E0A8D2A1
:1025C000F501449150E0475D5F4F21E030E0B801F4
:1025D00083E997E09DD2F50184914EE350E0481BDA
:1025E000510921E030E0B80183E997E091D2F5018B
:1025F000A4904FE350E04A19510921E030E0B801BE
:1026000083E997E085D20F5F1F4F0B35110509F065
:10261000C8CF23E2A22EB12CF501ED57F74F8491DC
:1026200044910EE310E0081B110950E0485D5F4F34
:10263000EE24E394F12C9501B50183E997E00E9423
:102640004025F3E0AF0EB11C2CE5A216B10421F732
:102650009ECF03E210E0F801E65BF74F5F01849143
:102660004EE350E0481B510921E030E0B80183E916
:1026700097E04ED2F501A4904FE350E04A1951097A
:1026800021E030E0B80183E997E042D20F5F1F4FAD
:102690000B35110501F7A12CB12CC50186969A873F
:1026A0008987F501E359F74FF887EF83849166E056
:1026B0000E94EC5A29853A85281B3109B5016D5DC8
:1026C0007F4FEE24E394F12C0EE310E048E250E05B
:1026D00083E997E00E944025F501E259F74F849184
:1026E000EF81F88544919501275D3F4F66E00E9498
:1026F000EC5A281B3109842F0E94EC5A69857A858F
:10270000681B710908E210E04EE350E083E997E0AE
:102710000E944025F6E0AF0EB11CEF81F885849150
:1027200066E00E94EC5AA81AB108F5E3AF16B104AE
:102730000CF4B3CF82E08093A7078093A807D092D0
:10274000A607C092A507D092A407C092A307109233
:10275000A00710929F071092A2071092A1076BEE9C
:1027600074E083E997E00E945A2E81E08093A707E6
:102770008093A807D092A607C092A507D092A4077D
:10278000C092A3071092A00710929F0780E190E0EB
:102790009093A2078093A10766EF74E083E997E026
:1027A0000E945A2E6CE174E083E997E00E945A2E51
:1027B0008091DF059091E005892B41F41092A407E8
:1027C0001092A307D092A607C092A50720910608F1
:1027D0003091070846E0429FC001439F900D1124AD
:1027E000865D984F0E94D144D092A607C092A5075B
:1027F000D092A407C092A307809106089091070881
:10280000892B09F41BC11092A00710929F0788E141
:1028100090E09093A2078093A1076CEF74E083E9A6
:1028200097E00E945A2ED092A607C092A507D09298
:10283000A407C092A3076CE174E083E997E00E94CB
:102840005A2E8091DF059091E0058130910541F489
:102850001092A4071092A3079093A6078093A50750
:102860006091040870910508CE0101960E94290824
:10287000CE0101960E94D144CE0101960E946B2D9B
:10288000D092A607C092A507D092A407C092A30732
:102890008091DF059091E005029721F41092A40742
:1028A0001092A3076091020870910308CE0101966F
:1028B0000E942908CE0101960E94D144CE010196C2
:1028C0000E946B2DD092A607C092A507D092A407B4
:1028D000C092A30763E075E083E997E00E945A2E57
:1028E0001092A00710929F0780E290E09093A207B9
:1028F0008093A10700910608109107080130110587
:10290000E1F566E075E083E997E00E945A2E6CE1FC
:1029100074E083E997E00E945A2E8091DF05909140
:10292000E005039741F41092A4071092A3071093B7
:10293000A6070093A5074091000850910108052EB5
:10294000000C660B770B77FF05C083E997E00E94C8
:102950001D2E05C02AE083E997E00E94D42DD09275
:10296000A607C092A507D092A407C092A3076DE066
:1029700075E083E997E00E945A2E809106089091B5
:102980000708029709F05AC06FE075E083E997E005
:102990000E945A2E6CE174E083E997E00E945A2E5F
:1029A0008091DF059091E005039741F41092A40710
:1029B0001092A307D092A607C092A5076091FE07C8
:1029C0007091FF07CE0101960E942908CE01019661
:1029D0000E94D144CE0101960E946B2DD092A60791
:1029E000C092A507D092A407C092A3078091DF05EB
:1029F0009091E005049721F41092A4071092A30788
:102A00006091FC077091FD07CE0101960E94290894
:102A1000CE0101960E94D144CE0101960E946B2DF9
:102A2000D092A607C092A507D092A407C092A30790
:102A300063E075E083E997E00E945A2E1092A007A8
:102A400010929F0787E390E09093A2078093A107DD
:102A50008091DF059091E005059741F41092A4075D
:102A60001092A307D092A607C092A5076FE874E062
:102A700083E997E00E94492ED092A607C092A5074D
:102A8000D092A407C092A30787E690E09093A00796
:102A900080939F0787E390E09093A2078093A1071C
:102AA0008091DF059091E005069721F41092A4072C
:102AB0001092A30764E974E083E997E00E94492E2D
:102AC0000E94044322CB909301088093000840CCDD
:102AD000EF92FF920F931F93CF93DF931F92CDB787
:102AE000DEB77C01FC0100811181C80169830E946D
:102AF0002C576981681719F0C8010E943457C70123
:102B00000F90DF91CF911F910F91FF90EF9008955B
:102B1000FC0177FDB9C080859185681779070CF0B5
:102B2000B3C057FDB1C082859385481759070CF093
:102B300008958689823079F484819581DC01A61B11
:102B4000B70BBD016150710986819781DC01A41B1F
:102B5000B50BAD010EC0833009F084C06427752722
:102B6000CB01842795276827792746815781481B01
:102B7000590B415051092130310531F048F12230D3
:102B8000310509F44AC00895CA0157FD07969C0112
:102B9000A3E035952795AA95E1F7A481B5812A9FF1
:102BA000C0012B9F900D3A9F900D1124680F791F43
:102BB000078CF0A1E02DE60FF71F4770552781E045
:102BC00090E001C0880F4A95EAF79081892B48C0B0
:102BD000CA0157FD07969C0193E0359527959A9574
:102BE000E1F7A481B5812A9FC0012B9F900D3A9FE8
:102BF000900D1124680F791F078CF0A1E02DE60FCE
:102C0000F71F4770552781E090E001C0880F4A9573
:102C1000EAF780959081892323C0CA0157FD079662
:102C20009C0183E0359527958A95E1F7A481B581CC
:102C30002A9FC0012B9F900D3A9F900D1124680F81
:102C4000791F078CF0A1E02DE60FF71F477055277D
:102C500081E090E001C0880F4A95EAF790818927CA
:102C600080830895813009F086CF64277527462731
:102C700057276427752784819581DC01A61BB70B34
:102C8000BD016150710977CF089585ED8093BC0037
:102C90008091BC0084FDFCCF1092B0050895409156
:102CA0002306262F30E0240F311D21323105DCF4BC
:102CB0002091B0052430C9F4FC0180E090E0861733
:102CC00058F4309123062191DC01AF5FB94FA30F77
:102CD000B11D2C930196F3CF80912306680F60936A
:102CE000230680E0089581E0089582E00895089524
:102CF00081E090E03091B2052091B105321710F4D7
:102D000080E090E091958195910908958091B205B8
:102D10009091B105891730F48F5F8093B20580E000
:102D200090E008958FEF9FEF08958091B10590E0B6
:102D30002091B205821B91090895CF92DF92EF9204
:102D4000FF920F931F93CF93DF937C01262F972F32
:102D50008A0180918906882391F0C62FD72F6E01B2
:102D6000C40ED51ECC15DD0569F06991D701ED9132
:102D7000FC910190F081E02DC7011995F3CF642FEC
:102D8000822F8DDFC801DF91CF911F910F91FF90AE
:102D9000EF90DF90CF900895CF93DF931F92CDB740
:102DA000DEB76983209189062223D1F0209186061F
:102DB000203240F021E030E0FC013383228380E0C8
:102DC00090E014C080918706E82FF0E0EF51FA4FB1
:102DD000998190838F5F809387068093860604C0D5
:102DE00061E0CE0101965BDF81E090E00F90DF9122
:102DF000CF910895089580E090E008950F931F9378
:102E0000DC015696EC915697E23061F0E33009F11F
:102E1000E13081F51496ED91FC911597E41BF50BCB
:102E2000319723C0DC011496ED91FC911597DF01D9
:102E3000A61BB70BBD01DC011696ED91FC9117970F
:102E4000DF01A41BB50BAD0141505109621B730B8F
:102E500011C0FA01DC0116964D915C911797DA01C9
:102E6000A61BB70BBD01621B730BAB01BF010E9418
:102E7000952A0CC057FD0AC0DC011696ED91FC9115
:102E800017974E175F0714F40E942E2A1F910F9177
:102E90000895AF92BF92CF92DF92EF92FF920F937D
:102EA0001F93CF93DF931F921F92CDB7DEB78B0195
:102EB0006B0124E0C20ED11C7B015C01A61AB70A8B
:102EC00095012E0D3F1DF70161917F013A83298302
:102ED000CE010196FDDDEC14FD0491F7C8010F90C1
:102EE0000F90DF91CF911F910F91FF90EF90DF90A6
:102EF000CF90BF90AF900895EF92FF920F931F93E2
:102F0000CF93DF931F921F92CDB7DEB78C017B0169
:102F1000FB0160819A838983CE010196D9DDF70197
:102F200061810F5F1F4F1A830983CE010196D0DDA7
:102F3000C7010F900F90DF91CF911F910F91FF90DC
:102F4000EF9008950F931F93CF93DF938C01EB01C4
:102F50000E942C578883C80101960E942C578983B0
:102F6000CE01DF91CF911F910F910895CF92DF9203
:102F7000EF92FF920F931F93CF93DF93EB017B01AF
:102F800024E0E20EF11C8B016C01C61AD70AC601BF
:102F9000800F911F0E942C57F80181938F01EE152D
:102FA000FF05A9F7CE01DF91CF911F910F91FF90FF
:102FB000EF90DF90CF90089508958CBD9DBD08954A
:102FC0001F920F920FB60F9211240BB60F922F93F0
:102FD0003F934F935F936F937F938F939F93AF93A1
:102FE000BF93EF93FF938091B900887F803609F4F7
:102FF0009CC068F5883209F45BC090F4803109F414
:1030000054C038F4882309F4F6C0883009F44DC060
:10301000F5C0883109F44CC0803209F45DC0EEC0BF
:10302000803409F468C048F4803309F455C088330B
:1030300009F0E4C080934806D8C0803509F44FC039
:10304000883509F45DC0883409F0D8C0D6C0883905
:1030500009F4C7C0A8F4883709F467C038F4883683
:1030600009F463C0803709F460C0C8C0883809F427
:10307000B8C0803909F45FC0803809F0BFC05BC0B8
:10308000803B09F486C038F4803A09F466C0883A77
:1030900009F47FC0B3C0803C09F4A7C0883C09F4A0
:1030A000A4C0883B09F48AC0A9C080916B0610C0F7
:1030B00090916A0680916906981770F5E0916A060A
:1030C00081E08E0F80936A06F0E0E75BF94F808124
:1030D0008093BB0085EC86C0809348068EC0E0914B
:1030E0006A0681E08E0F80936A068091BB00F0E053
:1030F000E75BF94F808390916A06809169066EC004
:10310000E0916A0681E08E0F80936A068091BB0091
:10311000F0E0E75BF94F80838091AF0581116DC0CE
:1031200081E08093AE0584EA61C083E08093B005BE
:1031300010924706CFCF80914706803208F051C0E9
:10314000E091470681E08E0F809347068091BB0097
:10315000F0E0E95DF94F8083BDCF85EC8093BC0042
:103160001092B00580914706803230F4E091470616
:10317000F0E0E95DF94F10826091470670E0E09160
:103180002506F091260687E296E0199510924706EB
:1031900035C084E08093B005109224061092230677
:1031A000E0912106F0912206199580912306811164
:1031B00005C081E08093230610920106E091240669
:1031C00081E08E0F80932406F0E0EF5FF94F80815D
:1031D0008093BB009091240680912306981708F4F1
:1031E00079CF85E88093BC0009C085EC8093BC0052
:1031F0001092B00503C01092480647DDFF91EF9191
:10320000BF91AF919F918F917F916F915F914F91FE
:103210003F912F910F900BBE0F900FBE0F901F90FC
:1032200018959B01AC0160E074E284EF90E00E948D
:10323000F85ADA01C9014097A109B109B695A795D5
:10324000979587958093B800089520918606909170
:103250008806213208F04AC08091B0058111FCCF68
:1032600032E03093B00531E03093AF053FEF30935B
:10327000480610926A0620936906A1EEB5E049E47B
:1032800056E0FA013E2F341B321718F43D9131936A
:10329000F9CF10926B0620916B06990F922B9093A9
:1032A0006B069091AE05913061F41092AE0590914D
:1032B0006B069093BB009091BC0093FDF8CF95EC0A
:1032C00001C095EE9093BC009091B0059230E1F36F
:1032D000909148069F3F79F080914806803241F0F6
:1032E00080914806803331F084E005C081E003C05E
:1032F00082E001C083E01092870610928606109249
:10330000890608951F93CF93DF93FC01858D968DD9
:10331000009721F1162FEF0121A131E030938906AA
:10332000209388061092870610928606DC01ED91A4
:10333000FC910190F081E02D60E019958D8D9E8DBE
:10334000DC01ED91FC910190F081E02D612F199548
:103350008D8D9E8DDF91CF911F9177CFA5A5B6A5BD
:103360009C9183A9809589238C93838D948D892B3F
:1033700031F0862FDF91CF911F910C946A4228E0A3
:1033800030E080E8A1A5B2A591A9482F462319F005
:103390004C91942B03C04C91909594239C93A3A59E
:1033A000B4A54C9192A9942B9C93A3A5B4A54C9140
:1033B00092A9909594239C9386952150310911F7F9
:1033C000DF91CF911F910895CF9361EC75E080E07C
:1033D00090E092DD6BEB75E082E090E08DDD69EBD3
:1033E00075E084E090E088DD6FEB75E086E090E0CA
:1033F00083DD64E072E088E090E04BDD60E072E045
:103400008CE090E046DD67EB75E084E190E074DDF0
:103410006DEB75E080E490E06FDD8091C1059091E7
:10342000C2058230910531F1009759F4E091BB0556
:10343000F091BC05EE0FFF1FEE0FFF1FEE5CFD4F7E
:103440000CC0019749F5E091B905F091BA05EE0F6E
:10345000FF1FEE0FFF1FE65EFD4F80819181A2816D
:10346000B3818093B3059093B405A093B505B09351
:10347000B60512C08091040290910502A091060247
:10348000B09107028093B3059093B405A093B5055E
:10349000B093B605C0E001C0C1E067E385E690E007
:1034A0000E9434572091B3053091B4054091B50581
:1034B0005091B60561E08091BF059091C005892BC0
:1034C00009F460E08C2FCF910C94664085E690E083
:1034D0000E942C57873309F49CC01092C2051092A9
:1034E000C1051092BC051092BB051092BA0510924E
:1034F000B9051092C0051092BF0580E09AECAAE9C8
:10350000BBE38093040290930502A0930602B0935C
:1035100007028093000290930102A0930202B093ED
:1035200003021092B8051092B7051092BE051092D2
:10353000BD0569EF79E08DE896E00E94802E67EE88
:1035400079E08DE896E00E945C2E8091C105909113
:10355000C2050E947C3E68ED79E08DE896E00E940D
:103560005C2E8091BB059091BC050E947C3E67EC6F
:1035700079E08DE896E00E945C2E8091B9059091EB
:10358000BA050E947C3E69EB79E08DE896E00E94E6
:103590005C2E8091BF059091C0050E947C3E6BEA35
:1035A00079E08DE896E00E945C2E609104027091B3
:1035B000050280910602909107020E94693E6BE924
:1035C00079E08DE896E00E945C2E60910002709197
:1035D000010280910202909103020E94693E6AE812
:1035E00079E08DE896E00E945C2E8091B70590917D
:1035F000B8050E947C3E6DE779E08DE896E00E9478
:103600005C2E8091BD059091BE050E947C3EDCDE63
:1036100096C061EC75E080E090E094DC6BEB75E0C7
:1036200082E090E08FDC69EB75E084E090E08ADC7A
:103630006FEB75E086E090E085DC64E072E088E0A6
:1036400090E094DC60E072E08CE090E08FDC67EB6F
:1036500075E084E190E076DC6DEB75E080E490E06D
:1036600071DC6AE579E08DE896E00E94802E68E4DE
:1036700079E08DE896E00E945C2E8091C1059091E2
:10368000C2050E947C3E69E379E08DE896E00E94E5
:103690005C2E8091BB059091BC050E947C3E68E247
:1036A00079E08DE896E00E945C2E8091B9059091BA
:1036B000BA050E947C3E6AE179E08DE896E00E94BE
:1036C0005C2E8091BF059091C0050E947C3E6CE00D
:1036D00079E08DE896E00E945C2E60910402709182
:1036E000050280910602909107020E94693E6CEFEC
:1036F00078E08DE896E00E945C2E60910002709167
:10370000010280910202909103020E94693E6BEED9
:1037100078E08DE896E00E945C2E8091B70590914C
:10372000B8050E947C3E6EED78E08DE896E00E9440
:103730005C2E8091BD059091BE050E947C3E8091DB
:10374000C1059091C2058230910531F1009759F47D
:10375000E091BB05F091BC05EE0FFF1FEE0FFF1FC0
:10376000EE5CFD4F0CC0019749F5E091B905F09171
:10377000BA05EE0FFF1FEE0FFF1FE65EFD4F8081C3
:103780009181A281B3818093B3059093B405A093F6
:10379000B505B093B60512C0809104029091050260
:1037A000A0910602B09107028093B3059093B405EF
:1037B000A093B505B093B60580E001C081E02091EB
:1037C000B3053091B4054091B5055091B60561E05F
:1037D000E091BF05F091C005EF2B09F460E00C9477
:1037E00066400F931F93CF93DF930E94B144C3E9C8
:1037F000D7E082E08C8B8D8B81E090E09B8B8A8B75
:10380000998B888B08E210E01D870C871F861E8627
:10381000888F62E474E0CE010E94492E1D870C87D8
:1038200080E290E09F878E876AE175E0CE010E947A
:103830005A2EDF91CF911F910F910C9404432F9238
:103840003F924F925F926F927F928F929F92AF9230
:10385000BF92CF92DF92EF92FF920F931F93CF937D
:10386000DF93CDB7DEB727970FB6F894DEBF0FBE54
:10387000CDBF29013A0169837A831C014801ED8299
:10388000CB821F823C2D330F330B3E839201A30169
:1038900069817A81C101A0E00E94D45CB1F1AB8062
:1038A000BE80CB2CDB2CEB2CFB2C0B2D1B2D92018B
:1038B000A30169817A81C1010E94A65B80E3820F26
:1038C0008A3314F087E3820F4F814F5F4C83F401FA
:1038D0006F81E60FF11D67FDFA958083AB80BE8096
:1038E000CB2CDB2CEB2CFB2C0B2D1B2D9201A301E5
:1038F00069817A81C1010E94A85B29013A0169832B
:103900007A831C018C818F83C1CF20E3AF818A2F02
:103910000A2E000C990BBD81AB1744F4F401E80F9B
:10392000F91F20839F819F5F9F83F0CF2401480E62
:10393000591EA201F40120E030E04C0161E0861A3A
:103940009108B401621B730B2617370754F460818A
:1039500041505109DA017C9171936C932F5F3F4F75
:10396000F0CFF201108227960FB6F894DEBF0FBE9B
:10397000CDBFDF91CF911F910F91FF90EF90DF901E
:10398000CF90BF90AF909F908F907F906F905F90FF
:103990004F903F902F9008950895FC016370668BBF
:1039A0008481958126813781613039F0633029F037
:1039B000918780873387228708953187208793876F
:1039C000828708952F923F924F925F926F927F92DB
:1039D0008F929F92AF92BF92CF92DF92EF92FF921F
:1039E0000F931F93CF93DF93CDB7DEB764970FB6D6
:1039F000F894DEBF0FBECDBF2B83F32FE42F5C8383
:103A00006D837E838F83988B0B8B8C8A04E30E945B
:103A1000915CC90197709A8389839501A601B701CA
:103A20008B89912F0E94915CC90197709A8B898B29
:103A3000A981BA81A81BB90B2B813F2F4E2F5C8126
:103A40006D817E818F818F7090E009E00E94765CAD
:103A5000288739874A875B876C877D878E879F8712
:103A60009501A601B7018B898F7090E00E94765C6A
:103A700029013A014B011C01109709F054C08981BA
:103A80009A818F3F974089F42885242939853529E3
:103A90004A8546295B8557296C8568297D85792962
:103AA0008E8582299F8593299FC089819A81892B40
:103AB00051F52B813F2F4E2F5C816D817E818F814F
:103AC00098890B890E94AD5C39014A01B62FA72F56
:103AD000F82FE92FEF772C8930E040E050E060E0EC
:103AE00070E080E090E00FE30E94765C59016A018B
:103AF0007B018C019301A4016B2F7A2F8F2F9E2FB6
:103B00000E94AD5CDEC09201A301B401C101905CD2
:103B1000A884B984CA84DB84EC84FD840E851F8567
:103B20000E94AD5CB3C0B7FF52C089899A898F3FAC
:103B30009740B9F49201A301B401C101A0E00E9431
:103B4000D45C09F0B3C02C8930E040E050E060E084
:103B500070E080E090E00FE30E94765C8051904836
:103B6000B0C089819A81892B49F4288539854A8595
:103B70005B856C857D858E859F8508C020E030E063
:103B800040E050E060E070E080E090E2A884B9841A
:103B9000CA84DB84EC84FD840E851F850E94AD5CA5
:103BA000EE24FF24EA1AFB0A0F2C000C000B110B69
:103BB0000E948030288739874A875B876C877D879A
:103BC0008E879F8789899A899A83898334C089815E
:103BD0009A818F3F974071F4288539854A855B85A6
:103BE0006C857D858E859F85A0E00E94D45C09F060
:103BF0005DC06FC089899A89892B29F49201A3013C
:103C0000B401C10108C020E030E040E050E060E0D5
:103C100070E080E090E252016301740181010E9432
:103C2000AD5C7D01BB0F000B110B0E9480302901A0
:103C30003A014B011C01288539854A855B856C85D5
:103C40007D858E859F8552016301740181010E94EB
:103C5000AD5C905E79018A01F62FD72EB82FA92F7F
:103C60002F3FEFEF3E074E075E076E077E078E077A
:103C7000EFE39E0709F080F489819A8101979A8386
:103C800089838B2F9A2F01E00E94765C79018A014B
:103C9000F62FD72EB82FA92F2F2F3D2D4B2F5A2F70
:103CA00069817A818C890E94D4301BC00B892B8159
:103CB0003F2F4E2F5C816D817E818F8198890E947C
:103CC00014332B83F32FE42F5C836D837E838F83E8
:103CD000988B2B813F2F4E2F5C816D817E818F8150
:103CE000988964960FB6F894DEBF0FBECDBFDF9102
:103CF000CF911F910F91FF90EF90DF90CF90BF90E9
:103D0000AF909F908F907F906F905F904F903F907B
:103D10002F9008958F929F92AF92CF92EF92FF9241
:103D20000F931F93CF93DF93EC01262F898D9A8DEC
:103D3000009709F042C06A3059F41D861C862D890F
:103D40008E859F8538E0239F800D911D112443C0EF
:103D50006D3009F4AAC08F898823C9F03C898C850D
:103D60009D8546E0349F800D911D1124488559851D
:103D70004817590764F41D861C863D898E859F85EA
:103D800048E0349F800D911D11249F878E87EA881B
:103D9000FB88088919894E855F856C857D85AD888E
:103DA000CC88CE010E94CF272C898C859D8536E05A
:103DB000239F800D911D11243EC06A3079F41D8629
:103DC0001C862D89FC013696E4918E859F852E9F59
:103DD000800D911D11249F878E8767C06D3009F477
:103DE00064C0FC0134963491631708F45EC03196C8
:103DF000E491E61708F459C0462F431B342FFC0109
:103E000032968590949047E0349F800C911C112449
:103E1000F401329634913196E491332311F0E1119B
:103E20000DC0F4013496E4912C898C859D85E29F28
:103E3000800D911D11249D878C8737C0F401359624
:103E400044915F89552319F15C89E32FF0E0E40F79
:103E5000F11D47FDFA955E9FB0015F9F700D112423
:103E60004C855D85460F571F6885798564177507F2
:103E700074F41D861C863D89FC013696E4918E857E
:103E80009F853E9F800D911D11249F878E87EA8814
:103E9000FB88088919894E855F856C857D85AD888D
:103EA000CC88CE010E94CF27BCCF81E090E0DF918B
:103EB000CF911F910F91FF90EF90CF90AF909F9077
:103EC0008F9008956115710579F0FB010190002034
:103ED000E9F73197AF01461B570BDC01ED91FC91DF
:103EE0000280F381E02D199480E090E008952F92F4
:103EF0003F924F925F926F927F928F929F92AF927A
:103F0000BF92CF92DF92EF92FF920F931F93CF93C6
:103F1000DF93CDB7DEB7AB970FB6F894DEBF0FBE19
:103F2000CDBF4C017E8F6D8FDC011296BC91B9879D
:103F3000FC01F381FA87DC011496BC91BD87FC017A
:103F4000F581FE87DC011696BC91BF87FC01F781E5
:103F5000F88BDC011896BC91B98BFC01F185FA8BCA
:103F600029853A854D855E856F8578898B2F9F2FB2
:103F7000A0E00E94D45C1CF56FEF7FEFCB010E94A4
:103F8000F43C59016A017B018C0129853A854D85F4
:103F90005E856F85788989899A890E94333429875B
:103FA0003A874D875E876F87788B898B9A8B8DE2F6
:103FB00080936C0601E010E01C8B0B8B02C01C8A06
:103FC0001B8AD4011296DC9012971396EC901397EB
:103FD0001496FC90149715961C9115971696BC9103
:103FE000F401C780308421842D2D3E2D4F2D512F7B
:103FF0006B2F7C2D832D8F7090E0A0E00E94D45C0D
:1040000091F0832D922D04E30E94915C2901F7E049
:104010005F220FEF401607E05006C9F46AE375E02F
:104020008CE696E084C32D2D3E2D4F2D512F6B2F06
:104030007C2D832D922D04E30E94915C290127E0C1
:1040400052223FEF431637E0530609F46AC32D2D81
:104050003E2D4F2D512F6B2F7C2D832D922D04E360
:104060000E94915C4901B7E09B22EFEF8E16E7E0DA
:104070009E06C1F460E275E08CE696E00E94055F62
:1040800020918A061AE0C12EE12C00E716E030E00C
:1040900040E050E060E070E080E090E0D0DB109223
:1040A0008A0622C349848A849D848E858AA75F8478
:1040B00098899983A989ABA7BA89BB83242D382D08
:1040C000492D582F652D792FCD0104E30E94915C75
:1040D000F901F770FC87EB876AE070E080E090E020
:1040E0000E94F43C2D8B3E8B4F8B588F698F7A8FBB
:1040F0008B8F9C8FB8E02B2E312C21E030E040E0FC
:1041000050E060E070E080E090E001E00E94765CCA
:10411000E22F632E742EF52FB62FA72F8F8398874B
:1041200002E00E94765C59016A017B018C012E2F0E
:10413000362D472D5F2F6B2F7A2F8F8198850E9408
:10414000AD5CF1E02F1A310801F70E94AA32A22ECD
:10415000B32E6A01E62EF72E8C010E943334722EA4
:10416000632E4E835F83362E272E8D8398870B8593
:104170001C85012B19F4612C712C63C12B853C85A6
:104180002F3F87E03807B9F310928A061C861B86FA
:104190002F3F334074F1AD81A07FAFA3B885BF77C7
:1041A000B8A7ED81EF70E9A76CC080918A068230D4
:1041B00010F7A72CB62CCE80DF80E32CF22C0D81DB
:1041C0001885242D382D492D5AA5652D79818BA56B
:1041D0009B810E943334422E832E942E5AA7562E52
:1041E00079838BA79B830B851C850F5F1F4F1C87D3
:1041F0000B87242D382D492D5AA5652D79818BA546
:104200009B8104E30E94915C590127E0B2223FEFB9
:10421000A31633E0B3064CF2B6C0242D382D492D39
:104220005AA5652D79818BA58F7090E0A0E00E9442
:10423000D45CD9F180E10E947A3080918A06823084
:1042400008F099CFA72CB62CCE80DF80E32CF22C7F
:104250000D811885242D382D492D5AA5652D79817C
:104260008BA59B810E942837422E832E942E5AA71D
:10427000562E79838BA79B838B859C8501979C8782
:104280008B8720E030E040E050E060E070E08BA5FC
:10429000807F9B819F77211531054105510561057F
:1042A0007105804F9F4709F4B8CF20E030E040E02F
:1042B00050E060E070E08FA198A52115310541051F
:1042C000510561057105804F9F4769F4272D362DF3
:1042D0004E815F81632D722D89A590E0A0E00E9440
:1042E000D45C09F0A7CF242D382D492D5AA5652D72
:1042F00079818BA59B810FE30E94915CE22F272D92
:10430000362D4E815F81632D722D8D8198850E949F
:10431000915CE217E1F0EE2309F48FCF242D2729D9
:10432000382D36294E8149295F81EAA55E2B652DFE
:104330006329798172298D81FBA58F2B9B8108854B
:10434000902B9F77A0E00E94D45CE9F476CF242DD7
:10435000382D492D5AA5652D79818BA59B81A72CD8
:10436000B62CCE80DF80E32CF22C0D8118850E94C4
:10437000CB5C09F462CFF1E00E94CB5C08F0F0E086
:10438000EF1709F45ACF612C712C242D382D492DAB
:104390005AA5652D79818BA59B8104E30E94915CD0
:1043A000590127E0B2223FEFA31633E0B3061CF118
:1043B00080918A06823008F0DECEAD88BE88CF8834
:1043C000D88CE98CFA8C0B8D1C8D242D382D492D21
:1043D0005AA5652D79818BA59B810E942837422E95
:1043E000832E942E5AA7562E79838BA79B831FEF7B
:1043F000611A710ACACFAD88BE88CF88D88CE98C83
:10440000FA8C0B8D1C8D242D382D492D5AA5652D28
:1044100079818BA59B810E9433342F8F38A349A3C8
:104420005AA36BA37CA38DA39EA38B859C85A4E03C
:10443000880F991FAA95E1F7681A790A81E0681A2E
:104440007108C3010496439798F09F8D9987A8A19E
:10445000AA87B9A1BD87EAA1EE87FBA1FF870CA1BE
:10446000088B1DA1198B2EA12A8B7A82698202C02A
:104470001A8219821F921F923A813F9389818F93EA
:104480007F926F9285E295E09F938F930E940C5FDD
:1044900020EA36E841E050E060E070E080E090E043
:1044A0000E94AA3259016A017B018C0165E070E02B
:1044B00080E090E00E94F43C0E94283759016A0194
:1044C0007B01E82F192F29853A854D855E856F85FB
:1044D000788989899A890FE30E94915C822E9501DF
:1044E000A601B7018E2F912F0E94915C0FB6F89410
:1044F000DEBF0FBECDBF0E2F82120AC029853A85BE
:104500004D855E856F85788989899A895BDA0AC0CD
:1045100029853A854D855E856F85788989899A894F
:104520000E94063B19012A013B01982E9D8701E05C
:104530009D850E945D452B873B834D835E836F8302
:10454000788789879A870E94AA3259016A017B017C
:10455000E82F192F9101A201B301892D9D850FE349
:104560000E94915C822E9501A601B7018E2F912F9A
:104570000E94915C0E2F821208C09101A201B3012A
:10458000892D9D850E94063B06C09101A201B301C1
:10459000892D9D8517DA19012A013B014C010B89F0
:1045A0001C890459194FFAE0CF2EEE24E3942B8591
:1045B0003B814D815E816F81788589859A853FD960
:1045C000AB89BC89A80FB91FFD01E459F94F8EE2F0
:1045D0008083AA30B10544F08FE090E0FC01EA1B33
:1045E000FB0BFC83EB8304C004E010E01C830B8313
:1045F00021E030E040E050E060E070E080E090E0FA
:104600001C861B86EB85FC850B811C81E017F1075E
:1046100004F501E00E94765CF9014E875D876F83A7
:10462000788789879A8702E00E94765C59016A013F
:104630007B018C019F014E855D856F817885898521
:104640009A850E94AD5CEB85FC853196FC87EB87F3
:10465000D9CFFD013196FC87EB870E94AA32590120
:104660006A017B018C019101A201B301C4010E9486
:10467000333402E00E945D450B851C850459194FB7
:10468000EAE0CE2EEB80DBD80B851C85800F911FD6
:1046900029813A81232B41F18C010F5F1F4F27E0C5
:1046A000FC01E459F94F2083A981BA81B7FF0CC0FE
:1046B000F801E459F94F2DE22083B195A195B10994
:1046C000BA83A9830F5F1F4F0459194F9A81990F1D
:1046D000990B8AE0C82EE12C29813A81492F592F64
:1046E000692F792F892FABD86CE676E08D8D9E8D62
:1046F000AB960FB6F894DEBF0FBECDBFDF91CF9162
:104700001F910F91FF90EF90DF90CF90BF90AF90EF
:104710009F908F907F906F905F904F903F902F90E1
:10472000D1CB6EE375E08B899C898459994F0E94A7
:10473000055FDACF3F924F925F926F927F928F9296
:104740009F92AF92BF92CF92DF92EF92FF920F9320
:104750001F93CF93DF93EC014A015B018EE392E05C
:10476000998388834115510561057105C1F1CB011C
:10477000BA010E94D33CE5E1E80F42E354E04E1B4E
:104780005109E7FD5395952F990F990B9A01492FE0
:10479000592F692F792F892F04E30E94765C322EDE
:1047A000432E542E652E762EB72FA82FF92F940165
:1047B000A50160E070E080E090E00E2F0E94765C42
:1047C00059016A017B018C01232D342D452D562D75
:1047D000672D7B2F8A2F9F2F0E94AD5C08C020E0A1
:1047E00030E040E050E060E070E080E090E02A835C
:1047F0003B834C835D836E837F8388879987DF91BA
:10480000CF911F910F91FF90EF90DF90CF90BF90CD
:10481000AF909F908F907F906F905F904F903F9060
:104820000895CF92DF92EF92FF920F931F93CF9351
:10483000DF93EC010E9424306B017C012F8530E076
:10484000F901E45AF04F8491F901E050FE4F0491D0
:10485000F901E05AFD4F1491112379F081110E9462
:10486000EF2EE12FF0E0EE0FFF1FE85EF54FA59170
:10487000B491EC91E02381E009F480E08170898BB0
:104880009889911103C091E08927898B89899A8938
:10489000891721F0CD8ADE8AEF8AF88E4D895E89EC
:1048A0006F89788DC41AD50AE60AF70A4B815C81B4
:1048B0006D817E814C155D056E057F0564F49A81DE
:1048C000891749F08A83882331F02B893C892F5F2F
:1048D0003F4F3C8B2B8B9A8191110CC04F81588597
:1048E00069857A854C155D056E057F05ACF42B89CD
:1048F0003C890EC04B855C856D857E854C155D05BC
:104900006E057F054CF42B893C8931952195310941
:10491000398328831C8A1B8A8A8BDF91CF911F9150
:104920000F91FF90EF90DF90CF9008950F931F931A
:10493000CF93DF931F92CDB7DEB78C01862FF8019E
:104940006787408B91E04927418B428B148A138AF9
:10495000118210821282158A168A178A108E44E1FB
:1049600050E060E070E043835483658376834AEFD0
:1049700050E060E070E0478350876187728748EEBF
:1049800053E060E070E0438754876587768760E096
:1049900029830E94742FF8018089298181110BC01D
:1049A000222349F061E087850F90DF91CF911F911D
:1049B0000F910C94452F0F90DF91CF911F910F9184
:1049C00008956F927F928F929F92AF92BF92CF92F3
:1049D000DF92EF92FF920F931F93CF93DF93EC013F
:1049E0004B015A0169013801E881F9810284F3859C
:1049F000E02D1995E881F9810288F389E02D87017E
:104A00009601A501B401CE011995E881F981A501AE
:104A1000460D571D415051090288F389E02D96013A
:104A2000B401CE011995E881F9810088F189E02D62
:104A30009301A501B401CE011995E881F981C80C53
:104A4000D91CB601615071090088F189E02D9301EC
:104A5000A501CE011995E881F9810688F789E02D35
:104A6000CE01DF91CF911F910F91FF90EF90DF90DA
:104A7000CF90BF90AF909F908F907F906F90199440
:104A8000CF92DF92EF92FF920F931F93CF93DF931A
:104A900000D000D0CDB7DEB76C01DC01ED91FC9108
:104AA0006217730789F4041715072CF4942F852FC8
:104AB000A801092F182F041B150B98012F5F3F4FDA
:104AC000048CF58DE02D12C04017510709F526170B
:104AD00037072CF4962F872FB901292F382F261B43
:104AE000370B2F5F3F4F068CF78DE02D8701C601F6
:104AF000199526960FB6F894DEBF0FBECDBFDF9195
:104B0000CF911F910F91FF90EF90DF90CF9008957C
:104B10000284F385E02D2D833E834B835C83698380
:104B20007A831995D601ED91FC910488F589E02DE1
:104B30002D813E814B815C8169817A81C601199505
:104B4000D601ED91FC910688F789E02DC6012696E5
:104B50000FB6F894DEBF0FBECDBFDF91CF911F918E
:104B60000F91FF90EF90DF90CF901994EF92FF920A
:104B70000F931F93DC01ED91FC9111971A960D9103
:104B80001C911B9718962D913C91199700A0F1A1AB
:104B9000E02D7B0140E050E060E070E019951F914E
:104BA0000F91FF90EF9008954F925F926F927F92D6
:104BB0008F929F92AF92BF92CF92DF92EF92FF922D
:104BC0000F931F93CF93DF931F921F92CDB7DEB742
:104BD0006C015A0139014801DC01ED91FC9102841C
:104BE000F385E02D69837A8319956981462E7A8150
:104BF000572E640C751CD601ED91FC914614570498
:104C00006CF40088F189E02D87019401A501B201BF
:104C1000C6011995BFEF4B1A5B0AEDCF0688F789DD
:104C2000E02DC6010F900F90DF91CF911F910F9152
:104C3000FF90EF90DF90CF90BF90AF909F908F90BC
:104C40007F906F905F904F901994AF92BF92CF92E8
:104C5000DF92EF92FF920F931F93CF93DF9300D0D9
:104C60001F92CDB7DEB75C016901DC01ED91FC91CB
:104C70000284F385E02D4B835C8369837A831995E5
:104C8000D501ED91FC9169817A819B012C0D3D1D2F
:104C9000215031090488F589E02D78014B815C8130
:104CA0008A01C5011995D501ED91FC910688F78916
:104CB000E02DC5010F900F900F900F90DF91CF91D5
:104CC0001F910F91FF90EF90DF90CF90BF90AF902A
:104CD0001994AF92BF92CF92DF92EF92FF920F930F
:104CE0001F93CF93DF9300D01F92CDB7DEB75C0147
:104CF0006901DC01ED91FC910284F385E02D4B8389
:104D00005C8369837A831995D501ED91FC914B8180
:104D10005C81C40ED51EB1E0CB1AD1080488F58998
:104D2000E02D7801860169817A819B01C501199581
:104D3000D501ED91FC910688F789E02DC5010F9012
:104D40000F900F900F90DF91CF911F910F91FF90D7
:104D5000EF90DF90CF90BF90AF9019940895EF92AD
:104D6000FF920F931F93DC01ED91FC9100A0F1A144
:104D7000E02D19951F910F91FF90EF9008950F93DB
:104D80001F93DC01ED91FC91068CF78DE02D1995B8
:104D90001F910F9108950F931F93DC01ED91FC91EA
:104DA000048CF58DE02D19951F910F910895DC016C
:104DB000ED91FC910084F185E02D199408952F92D6
:104DC0003F924F925F926F927F928F929F92AF929B
:104DD000BF92CF92DF92EF92FF920F931F93CF93E8
:104DE000DF9300D0CDB7DEB74C017B836A836A01C5
:104DF000590117019801241B350B37FF03C031956A
:104E000021953109C5014A815B81841B950B97FF70
:104E100003C091958195910951E0598382179307B9
:104E200014F019820BC09A2D8B2D5801092F182FC1
:104E30009A818B81DB82CA82C92ED82E8A819B817E
:104E4000A816B9065CF49C2D8D2D6801092F182F2A
:104E50009A818B81BB82AA82A92EB82E2501AA81B4
:104E6000BB814A1A5B0A38016C187D0877FE03C0C3
:104E7000719461947108720157FE03C0BFEFEB1A81
:104E8000FB0AF594E794C016D1061CF00FEF1FEF54
:104E90001FC001E010E01CC0D401ED91FC91B9816C
:104EA0000484F585E02D9101BB23C1F04A815B812B
:104EB000B601C4011995E618F708F7FE04C0C00E44
:104EC000D11EE40CF51CEA81FB813196FB83EA8359
:104ED0004A815B81A416B506FCF604C0A6016A816E
:104EE0007B81E7CF0F900F900F90DF91CF911F91B3
:104EF0000F91FF90EF90DF90CF90BF90AF909F9079
:104F00008F907F906F905F904F903F902F9008957B
:104F10001F93CF93DF93EC01162F8D8D9E8D892BE0
:104F200039F06FA978AD89AD9AAD0E9411190FC003
:104F30008B8D9C8D892B21F08DA99EA90E94DD1758
:104F4000EFA5F8A990818CA9809589238083111100
:104F500002C066EA01C067EACE010E9482198D8D07
:104F60009E8D892B49F06BAD7CAD8DAD9EADDF91F3
:104F7000CF911F910C941119EFA5F8A990818CA9DC
:104F8000892B80838B8D9C8D892B29F0DF91CF918C
:104F90001F910C94DC17DF91CF911F9108952F92F0
:104FA0003F924F925F926F927F928F929F92AF92B9
:104FB000BF92CF92DF92EF92FF920F931F93CF9306
:104FC000DF93CDB7DEB76C970FB6F894DEBF0FBE98
:104FD000CDBF9C8F8B8F1B014A0119870887370132
:104FE000A982DC0159964D915C915A974115510562
:104FF00009F0FFC018968D919C9119976817790751
:105000000CF0E1C11A968D919C911B978816990618
:105010000CF0D9C1EC2DF0E0FB83EA83AB0166E034
:10502000C69E400D511D11245D874C871416150630
:105030000CF0C9C18A2D90E09B878A8733E0880FE6
:10504000991F3A95E1F79F878E87880D991D18164D
:1050500019060CF0B8C158968C91811103C0203B01
:1050600008F02F5FAB8DBC8DED91FC911197028400
:10507000F385E02DCD012A8F19952A8DB5E02B9F60
:1050800090011124EC2DF0E0F98BE88BA1014B5F2E
:105090005F4F5B8B4A8B3D822C822101B9016219E3
:1050A00073097D8B6C8B9981892F90E09F8B8E8B00
:1050B000D4011896B98FA88FEC89FD89E40DF51DF0
:1050C000EE5BF54FD49054019F828E82D0FE16C0C5
:1050D000AB8DBC8DED91FC91B1E0CB1209C0298163
:1050E000213031F40484F585E02D2885398519C0F7
:1050F0000684F785E02DE884F9841DC0488559852C
:105100006416750619F1AB8DBC8DED91FC91B1E083
:10511000CB120DC02981213051F40484F585E02D96
:105120009301A501B2018B8D9C8D19950FC006844A
:10513000F785E02D73010A851B852A813B814E810D
:105140005F816C817D818B8D9C8D1995D6943FEF0D
:10515000A31AB30A4E815F816E897F89460F571F5C
:105160005F834E83888D998DA816B90609F0AECF5E
:105170009FEF491A590AAC81BD81E889F989AE0FC0
:10518000BF1FBD83AC832A893B894216530609F0B1
:1051900093CF488559856416750609F4F2C0AB8D26
:1051A000BC8DED91FC91B1E0CB1211C02981213071
:1051B00071F4B1016B5F7F4F0088F189E02D8301AD
:1051C00028E030E0A4018B8D9C8D1995DAC06C85A8
:1051D0007D854A815B81641B750B0684F785E02D14
:1051E00073010E851F859A01A4018B8D9C8D1995E5
:1051F000C8C0FA0134969491329765917491291B35
:10520000CB01B7E02B9F800D911D1124FA01259150
:1052100034913B8B2A8BFC01A590B490FC01329613
:105220005490319634913C87329614913196749013
:1052300041E04C1518F05981523068F0612F012E71
:10524000000C770B7B836A83872D072C000C990B4E
:105250009D838C8304C01D821C821B821A82AB8DAD
:10526000BC8DED91FC9111970284F385E02DCD0169
:105270001995412CD12C612CF981EF2FF0E0FF839F
:10528000EE832C2D30E03B872A87A401470D511D6A
:1052900077FC5A955F8B4E8BB101610F711D17FD25
:1052A0007A95798F688F5C85651608F06AC0262D1F
:1052B00030E04C815D81420F531F6E817F81469F9C
:1052C000C001479F900D569F900D1124DC01A80D41
:1052D000B91DB98BA88B842D712CEE89FF89E20F43
:1052E000F31FFD8BEC8B751408F048C071E0780F4C
:1052F0007E87877041F4C5010196EA89FB89EA0D32
:10530000FB1DD4905C01D7FE35C0AB8DBC8DED91FB
:10531000FC91B1E0CB1212C02981213079F40484D0
:10532000F585E02D288539854C895D89688D798DD5
:10533000670D711D8B8D9C8D19951CC08A819B8179
:10534000870D911D4A855B85849FB001859F700DF7
:10535000949F700D1124620D731D0684F785E02D56
:10536000E884F9840E811F819A01488959898B8DBF
:105370009C8D1995DD0C73948E85B5CF450C639487
:1053800092CFAB8DBC8DED91FC9111970688F7897A
:10539000E02DCD016C960FB6F894DEBF0FBECDBFE9
:1053A000DF91CF911F910F91FF90EF90DF90CF9001
:1053B000BF90AF909F908F907F906F905F904F9035
:1053C0003F902F9019946C960FB6F894DEBF0FBEE5
:1053D000CDBFDF91CF911F910F91FF90EF90DF90A4
:1053E000CF90BF90AF909F908F907F906F905F9085
:1053F0004F903F902F900895CF93CFB7F89480911E
:105400007C06811123C0E5E9F2E08491E5E3F2E056
:105410009491E82FF0E0EE0FFF1FEE5BF04FA591A7
:10542000B491EC91E92319F461E085E32ED561E0B4
:1054300085E35AD58CB580618CBD8CB580648CBDFC
:1054400061E084E351D561E083E34ED580917C0631
:105450008F5F80937C06CFBFCF9108950F931F93EA
:10546000CF93DF9377FF04C0260F371F60E070E013
:10547000DC011496CD91DC911597FB01E20FF31F2F
:10548000CE17DF071CF49E01261B370B12161306DE
:105490000CF046C0FA0157FD3796DF01E3E0B59501
:1054A000A795EA95E1F7AC9FF001AD9FF00DBC9F89
:1054B000F00D11246E0F7F1FDC015F96ED91FC91C2
:1054C0009097E60FF71F4770552781E090E001C0E5
:1054D000880F4A95EAF7482F0130110539F078F026
:1054E00002301105E9F42E0F3F1F13C02E0F3F1F8E
:1054F000E217F307A9F08081842B8193F9CF80957F
:105500002E0F3F1FE217F30759F0908198239193D4
:10551000F9CFE217F30721F0808184278193F9CF37
:10552000DF91CF911F910F910895EF92FF920F930A
:105530001F93CF93DF93EC0177FDA4C0EC80FD8037
:105540006E157F050CF09EC057FF04C0240F351F59
:1055500040E050E08E819F81FA01E20FF31F8E1729
:105560009F071CF49C01241B350B121613060CF02C
:1055700089C0922F842F8695869586958E9DD00121
:105580008F9DB00D11246A0F7B1FAF8DB8A1A60FA0
:10559000B71F4770A9F188E0841B482F682F70E07F
:1055A000FB01E65CF54FE491281790F4621B71094A
:1055B0002FEF30E002C0359527956A95E2F7E22398
:1055C0000130110541F070F00230110579F05AC038
:1055D0000130110519F48C91E82B0AC00130110536
:1055E00008F049C0E0958C91E82302C08C91E8272F
:1055F000EC932C813D81941708F444C0A20FB31F93
:10560000E92FE41BE830F8F00230110561F48E2F29
:105610009C9190959C932C813D81A20FB31F885043
:105620008830B0F70FC081E00115110509F480E062
:1056300081959E2F8C932C813D81A20FB31F985092
:105640009830C0F7E770EE23E9F0F0E0EE5CF54F3C
:10565000E4910130110539F048F00230110591F460
:105660008C91E82706C08C91E82B03C0E0958C91C3
:10567000E823EC9307C00230110509F4B7CFAE0D53
:10568000BF1DBECFDF91CF911F910F91FF90EF9083
:1056900008950F931F93CF93DF93DC015696EC91FF
:1056A0005697E23071F0E330E9F0E13071F5FB013B
:1056B00014960D90BC91A02DA41BB50BA21BB30B8F
:1056C00018C0EC01EC81FD81E61BF70BBF016150B6
:1056D0007109EE81FF81DF01A41BB50BAD01421BF7
:1056E000530B13C0DA01EC01EE81FF81E61BF70BCF
:1056F0003197F7FD0BC0EC014E815F81E417F50790
:105700002CF4AF01BD01AADE01C00FDFDF91CF9104
:105710001F910F910895CF92DF92EF92FF920F9316
:105720001F93CF93DF936C017A018B01C0E0D0E02F
:10573000CE15DF0589F0D8016D918D01D601ED916F
:10574000FC910190F081E02DC6011995892B11F48F
:105750007E0102C02196ECCFC701DF91CF911F914E
:105760000F91FF90EF90DF90CF900895FC01538D43
:10577000448D252F30E0842F90E0821B930B54172B
:1057800010F0CF96089501970895FC01918D828DB8
:10579000981761F0828DDF01A80FB11D5D968C9185
:1057A000928D9F5F9F73928F90E008958FEF9FEF90
:1057B0000895FC01918D828D981731F0828DE80F4C
:1057C000F11D858D90E008958FEF9FEF0895FC0106
:1057D000918D228D892F90E0805C9F4F821B9109D3
:1057E0008F73992708958DE896E0F1DF21E0892BEA
:1057F00009F420E0822F0895FC01848DDF01A80FB9
:10580000B11DA35ABF4F2C91848D90E001968F73E8
:105810009927848FA689B7892C93A089B1898C9107
:1058200080648C93938D848D981306C00288F389CD
:10583000E02D80818F7D80830895EF92FF920F93FA
:105840001F93CF93DF93EC0181E0888F9B8D8C8D2C
:10585000981305C0E889F989808185FD23C0F62E5B
:105860000B8D10E00F5F1F4F0F731127E02E8C8DF3
:10587000E8120BC00FB607FCFACFE889F9898081DE
:1058800085FFF5CFCE01B8DFF2CF8B8DFE01E80F9B
:10589000F11DE35AFF4FF0820B8FEA89FB8980816B
:1058A000806207C0EE89FF896083E889F989808179
:1058B0008064808381E090E0DF91CF911F910F9110
:1058C000FF90EF900895CF93DF93EC01888D8823AC
:1058D000C1F0EA89FB89808185FD05C0A889B98965
:1058E0008C9186FD0EC00FB607FCF5CF808185FF39
:1058F000F2CFA889B9898C9185FFEDCFCE017CDFED
:10590000E8CFDF91CF91089580E090E0892B19F0E6
:105910006ADF811125C080E090E0892B41F080E0B2
:1059200090E0892B21F00E94000081111CC080E0D2
:1059300090E0892B41F080E090E0892B21F00E94DB
:105940000000811113C080E090E0892BA1F080E07D
:1059500090E0892B81F00E94000081110AC0089517
:105960000E940000D8CF0E940000E1CF0E940000FA
:10597000EACF0C94000008953FB7F89480917D061B
:1059800090917E06A0917F06B091800626B5A89BD7
:1059900005C02F3F19F00196A11DB11D3FBFBA2FC1
:1059A000A92F982F8827820F911DA11DB11DBC0121
:1059B000CD0142E0660F771F881F991F4A95D1F7E6
:1059C00008950E94F15E0F931F93CF93DF93EC0134
:1059D00088819981009729F02A813B812617370712
:1059E00088F48B016F5F7F4F0E940D5E009761F01E
:1059F000998388831B830A832C813D81232B11F497
:105A0000FC01108281E001C080E0DF91CF911F9105
:105A10000F910895CF93DF93EC01888199810097CE
:105A200011F00E94755D198218821D821C821B82F2
:105A30001A82DF91CF910895EF92FF920F931F93F7
:105A4000CF93DF93EC017B018A01BA01BCDF8111A6
:105A500003C0CE01DFDF07C01D830C83B70188813F
:105A600099810E94055FCE01DF91CF911F910F9127
:105A7000FF90EF900895EF92FF920F931F93CF93B3
:105A8000DF93EC01FB0184819581E080F1800C8142
:105A90001D81E114F104A9F00097A9F0080F191F66
:105AA000B801CE0190DF882361F0288139818C8193
:105AB0009D81B701820F931F0E94055F1D830C8398
:105AC00002C0CE01A7DFCE01DF91CF911F910F91D0
:105AD000FF90EF900895FC01808191810C94755D99
