:10000000F6C6000025C7000023C7000021C7000076
:100010001FC700001DC700001BC7000019C7000054
:1000200017C7000015C7000013C7000011C7000064
:100030000FC700000DC700000BC7000009C7000074
:1000400007C7000005C7000003C7000001C7000084
:10005000FFC60000FDC60000FBC600000C948236FF
:10006000F7C600000C9447350C941E35F1C600000D
:10007000EFC60000EDC60000EBC60000E9C60000B8
:10008000E7C60000E5C60000E3C60000E1C60000C8
:10009000DFC60000DDC60000DBC600000C94FC1BC0
:1000A000D7C60000D5C60000D3C60000D1C60000E8
:1000B000CFC60000CDC60000CBC60000C9C60000F8
:1000C000C7C60000C5C60000C3C60000C1C6000008
:1000D000BFC60000BDC60000BBC60000B9C6000018
:1000E000B7C600001C552E55815590559F55D055CB
:1000F000E55593579D56B0560B571A5729576B57CE
:1001000080579357D023DF2303242A2451246824C3
:100110007B248E24A124B424C724DA24ED24FF24D4
:1001200062263E254C256F259325B525CD25E02556
:10013000F12502261026212632264426572662263D
:1001400098359B358A358E359435D2359F35A33514
:10015000A935AD35B135B735BB35BF35D235C53528
:10016000C935CD3508000000BE922449123EABAA25
:10017000AA2ABECDCCCC4C3E00000080BEABAAAAC1
:10018000AA3E00000000BF000000803F0000000009
:1001900000084178D3BB4387D1133D190E3CC3BD42
:1001A0004282AD2B3E68EC8276BED98FE1A93E4CEF
:1001B00080EFFFBE01C4FF7F3F0000000000076327
:1001C0004236B79BD8A71A39685618AEBAAB558CC9
:1001D0001D3CB7CC5763BD6DEDFD753EF617723112
:1001E000BF000000803F05A84CCDB2D44EB93836D0
:1001F000A9020C50B9918688083CA6AAAA2ABE007A
:100200000000803FDB40A4A62EAFDA0281DA128123
:10021000DA02818F2000A1C8D300408DAED580A81E
:100220000102102020080810204010204080020108
:1002300002010804020101020408102040808040ED
:1002400020100804020180040201804020100804EC
:10025000020108040201010204081020408001028A
:1002600004081020408000002200250028002B00F8
:100270002E003100340002010000050108010B01CD
:1002800005050505070508080808020202020A0A12
:100290000808040404040101010101010101030330
:1002A000030303030303040707070C0C0C0C0C0CDB
:1002B0000C0C0202020206060606060606060B0BD8
:1002C0000B0B0B0B0B0B000060000000000000008C
:1002D00000000000000000E000000000000000003E
:1002E000000000000001E00000000000000000002D
:1002F0000000000001F0000000000000000000000D
:1003000000000003F00000000000000000000000FA
:10031000000007F0000000000000000000000000E6
:100320000007F800000000000000000000000000CE
:100330000FF800000003C0007E000001E0007F0F06
:10034000F800000003C000FE000001E000FFEFF82D
:1003500000000003C000FE000001E000FFFFF80005
:10036000000003C000F00000000F007FFE7FC0000F
:100370000003C000F00000000F003FFE7FF83FF1D7
:10038000FBCFFCFEF3BC3DEFE01FFE7FFF7FFBFFDA
:10039000DFFEFEFFBC3DEFE01FC6FFFF7FFBFFDF80
:1003A000FEFEFFBC3DEFE00FE3C7FE787BC3DE1E21
:1003B000F0FFBC3DEF0007FF87FC787BC3DE1EF03B
:1003C000F83C3DEF0001FFFFF0007BC3C01EF0F0E2
:1003D0003C3DEF0001F37FE03FFBC3CFFEF0F03C7C
:1003E0003DEF0003E33F807FFBC3DFFEF0F03C3DC9
:1003F000EF0007E73C00787BC3DE1EF0F03C3DEFEA
:100400000007FFBE00787BC3DE1EF0F03C3DEF002E
:1004100007FFFE00787BC3DE1EF0F03C3DEF000FCF
:10042000FFFE007FFBFFDFFEF0F03FFDEFE00FFF80
:10043000FF007FFBFFDFFEF0F03FFDEFE00FF9FF75
:10044000003E79F9CF9EF0F01F3DE7E01FF1FF007D
:1004500000000000000000000000001F80FF007F7F
:10046000FFFFFFFFFFFFFFFFFFE01C007F007FFF9C
:10047000FFFFFEB46D888D18E000001F007FFFFFB6
:10048000FFFE95AD7DB577E000000F007FFFFFFF19
:10049000FEA5AD9D8D19E0000006007FFFFFFFFE69
:1004A000B5ADEDB57EE00000000000018000000069
:1004B00000000000000003800000000000000000B9
:1004C0000007C000000000000000000007C000009E
:1004D000000000000000000FC0000000000000004D
:1004E00000001FE00000000000000000001FE0000E
:1004F00000000000000000003FE0000000000000DD
:100500000000003FF00000000000000000007FF04D
:10051000000000000000001FF87FF0000000000055
:1005200000003FFE7FF0000000000000003FFF7F62
:10053000F0000000000000001FFFFBE000000000D2
:100540000000000FFFF9FFC00000000000000FFFD7
:10055000F9FFF800000000000007FFF1FFFF0000B6
:100560000000000003FC73FFFF800000000000019A
:10057000FE3FFFFF80000000000000FF1E0FFF0095
:100580000000000000007FFE1FFC000000000000D3
:10059000003FFFFFF8000000000000000FDFFFE059
:1005A000000000000000001F19FFC0000000000054
:1005B00000003F3CFF00000000000000007E7CF8CF
:1005C00000000000000000007FFE7C000000000032
:1005D000000000FFFFFC0000000000000000FFFF23
:1005E000FE0000000000000000FFFFFE0000000011
:1005F00000000001FFEFFE0000000000000001FF0E
:10060000CFFE0000000000000003FF07FE00000016
:100610000000000003FC07FE0000000000000003D3
:10062000F003FE00000000000000018000FE00005A
:1006300000000000000000007E000000000000003C
:100640000000003E000000000000000000000C0060
:100650000000000000078000FC000003C000000054
:10066000078001FC000003C0000000078001FC00BF
:100670000003C0000000078001E00000001E000031
:1006800000078001E00000001E007FE3F79FF9FDF6
:10069000E7787BDFC0FFF7FFBFFDFDFF787BDFC0A2
:1006A000FFF7FFBFFDFDFF787BDFC0F0F787BC3DA4
:1006B000E1FF787BDE00F0F787BC3DE1F0787BDE80
:1006C0000000F787803DE1E0787BDE007FF7879FC1
:1006D000FDE1E0787BDE00FFF787BFFDE1E0787B9E
:1006E000DE00F0F787BC3DE1E0787BDE00F0F787C5
:1006F000BC3DE1E0787BDE00F0F787BC3DE1E078CF
:100700007BDE00FFF7FFBFFDE1E07FFBDFC0FFF70F
:10071000FFBFFDE1E07FFBDFC07CF3F39F3DE1E045
:100720003E7BCFC00000000000000000000000FF82
:10073000FFFFFFFFFFFFFFFFFFC0FFFFFFFFFD68A1
:10074000DB111A31C0FFFFFFFFFD2B5AFB6AEFC020
:10075000FFFFFFFFFD4B5B3B1A33C0FFFFFFFFFDB9
:100760006B5BDB6AFDC04669726D776172652076EE
:100770002E3A0044445320414439393130204172EB
:100780006475696E6F20536869656C6420627920B6
:10079000475241202620414643482E202867726157
:1007A0002D616663682E636F6D29004752412641B3
:1007B00046434800416D706C69747564653A004643
:1007C00072657175656E63792C205B487A5D3A00BD
:1007D0004444532041443939313000546F6F204C28
:1007E0006F6E672054696D6500000103070F1F3F9E
:1007F0007F0080C0E0F0F8FCFE2200FF21000B0C1F
:100800000D0F1011121314141515161616161615B1
:10081000151414131211100F0D0C0B0A09070605FD
:1008200004030202010100000000000101020203B2
:1008300004050607090A0B161616151514141312CB
:1008400011100F0D0C0B0A09070605040302020123
:10085000010000000000010102020304050607096F
:100860000A0B0C0D0F101112131414151516160087
:100870000020002300260029002C002F0032000059
:1008800001000003010601090100002100240027E6
:10089000002A002D00300033000101000004010790
:1008A000010A0100000A0B02090C0D0E08070304DF
:1008B0000100000000000000000000000000000037
:1008C0000000000000000000000000000000001216
:1008D00011100000000000000000000000000000F7
:1008E00000000000000000000000000000003E5B6F
:1008F0004F5B3E3E6B4F6B3E1C3E7C3E1C183C7E6D
:100900003C181C577D571C1C5E7F5E1C00183C1851
:1009100000FFE7C3E7FF0018241800FFE7DBE7FF4D
:1009200030483A060E2629792926407F05050740DA
:100930007F05253F5A3CE73C5A7F3E1C1C08081C9B
:100940001C3E7F14227F22145F5F005F5F06097FD9
:10095000017F006689956A606060606094A2FFA272
:100960009408047E040810207E201008082A1C0821
:10097000081C2A08081E101010100C1E0C1E0C302B
:10098000383E3830060E3E0E060000000000000023
:100990005F00000007000700147F147F14242A7FE3
:1009A0002A122313086462364956205000080703B0
:1009B00000001C2241000041221C002A1C7F1C2A2E
:1009C00008083E0808008070300008080808080081
:1009D0000060600020100804023E5149453E00427C
:1009E0007F400072494949462141494D331814124C
:1009F0007F1027454545393C4A4949314121110974
:100A0000073649494936464949291E000014000065
:100A1000004034000000081422411414141414007F
:100A20004122140802015909063E415D594E7C12CB
:100A300011127C7F494949363E414141227F414163
:100A4000413E7F494949417F090909013E414151E0
:100A5000737F0808087F00417F41002040413F012B
:100A60007F081422417F404040407F021C027F7F6C
:100A70000408107F3E4141413E7F090909063E417D
:100A800051215E7F09192946264949493203017FD0
:100A900001033F4040403F1F2040201F3F4038405F
:100AA0003F631408146303047804036159494D43F8
:100AB000007F4141410204081020004141417F0470
:100AC0000201020440404040400003070800205457
:100AD0005478407F284444383844444428384444B7
:100AE000287F385454541800087E090218A4A49C86
:100AF000787F0804047800447D40002040403D0099
:100B00007F1028440000417F40007C047804787CFA
:100B1000080404783844444438FC18242418182461
:100B20002418FC7C08040408485454542404043F4A
:100B300044243C4040207C1C2040201C3C40304051
:100B40003C44281028444C9090907C4464544C447D
:100B5000000836410000007700000041360800021E
:100B6000010204023C2623263C1EA1A161123A4048
:100B700040207A38545455592155557941225454BE
:100B80007842215554784020545579400C1E5272B9
:100B90001239555555593954545459395554545896
:100BA0000000457C410002457D420001457C407DBE
:100BB0001211127DF0282528F07C54554500205450
:100BC000547C547C0A097F4932494949323A4444A9
:100BD000443A324A4848303A4141217A3A42402028
:100BE00078009DA0A07D3D4242423D3D4040403DB9
:100BF0003C24FF2424487E4943662B2FFC2F2BFFE7
:100C00000929F620C0887E09032054547941000048
:100C1000447D413048484A32384040227A007A0ABE
:100C20000A727D0D19317D2629292F282629292987
:100C30002630484D402038080808080808080838B9
:100C40002F10C8ACBA2F102834FA00007B0000081F
:100C5000142A142222142A14085500550055AA55A6
:100C6000AA55AAFF55FF55FF000000FF0010101005
:100C7000FF00141414FF001010FF00FF1010F010FC
:100C8000F0141414FC001414F700FF0000FF00FF20
:100C90001414F404FC141417101F10101F101F1448
:100CA00014141F00101010F0000000001F1010108E
:100CB000101F10101010F010000000FF1010101086
:100CC0001010101010FF10000000FF140000FF00B3
:100CD000FF00001F10170000FC04F4141417101775
:100CE0001414F404F40000FF00F714141414141482
:100CF00014F700F7141414171410101F101F1414F5
:100D000014F4141010F010F000001F101F00000069
:100D10001F14000000FC140000F010F01010FF1071
:100D2000FF141414FF141010101F00000000F01026
:100D3000FFFFFFFFFFF0F0F0F0F0FFFFFF0000000B
:100D40000000FFFF0F0F0F0F0F3844443844FC4AD8
:100D50004A4A347E02020606027E027E026355493A
:100D600041633844443C04407E201E2006027E023B
:100D70000299A5E7A5991C2A492A1C4C7201724CBC
:100D8000304A4D4D303048784830BC625A463D3E7E
:100D9000494949007E0101017E2A2A2A2A2A44441F
:100DA0005F444440514A444040444A51400000FF9F
:100DB0000103E080FF000008086B6B083612362440
:100DC00036060F090F06000018180000001010006A
:100DD0003040FF0101001F01011E00191D17120004
:100DE0003C3C3C3C0000000000009B5B515B11243C
:100DF0001FBECFEFD1E2DEBFCDBF00E00CBF29E0C8
:100E0000A2EAB6E001C01D92AB33B207E1F716E0EB
:100E1000A0E0B2E0ECE0F1ED00E00BBF02C0079013
:100E20000D92A23AB107D9F716E0C6EFD6E000E07E
:100E300006C021970109802FFE010E94D661C53F9F
:100E4000D10780E00807A9F70E94784E0C947568D6
:100E5000D7C80F931F93CF93DF93CDB7DEB72C97EF
:100E60000FB6F894DEBF0FBECDBF8C01CB010A9741
:100E70004AE08A35910538F4CE0107960E94FD3389
:100E80006FE974E009C06A307105F4F4CE01079689
:100E90000E94FD336EE974E0CE0101960E944D344C
:100EA000BE01695F7F4FCE0101960E94A933BC014C
:100EB000C8010E943434CE0101960E94F833CE015D
:100EC00007960E94F83303C0C8010E94FD33C80191
:100ED0002C960FB6F894DEBF0FBECDBFDF91CF9139
:100EE0001F910F910895CF92DF92EF92FF920F938F
:100EF0001F93CF93DF9300D000D0CDB7DEB70E9411
:100F0000802122E0F22EF092C008F092C10801E0A8
:100F100010E01093BF080093BE081093BD08009323
:100F2000BC081092B9081092B8081092BB08109231
:100F3000BA08EE24E394E092C40860ED77E08CEA0E
:100F400098E00E940B35E092C008E092C10810932F
:100F5000BF080093BE081093BD080093BC08109210
:100F6000B9081092B80880E190E09093BB08809394
:100F7000BA086FEB77E08CEA98E00E940B35F092AC
:100F8000C008F092C1088091BF069091C006892BDD
:100F900049F41092BD081092BC081093BF0800934A
:100FA000BE0808C01093BF080093BE081093BD0888
:100FB0000093BC0801E010E01093B9080093B80852
:100FC0008AE190E09093BB088093BA086091B906DB
:100FD0007091BA06CE0101963CDFCE0101960E94C7
:100FE0000023CE0101960E94F8338091BF069091B4
:100FF000C0068130910549F41092BD081092BC08DA
:101000009093BF088093BE0808C01093BF08009358
:10101000BE081093BD080093BC086091BB06709198
:10102000BC06CE01019615DFCE0101960E94002379
:10103000CE0101960E94F8338091BF069091C006C0
:10104000029759F41092BD081092BC0881E090E01C
:101050009093BF088093BE080AC081E090E090930F
:10106000BF088093BE089093BD088093BC08609130
:10107000BD067091BE06CE010196EBDECE01019653
:101080000E947E4BCE0101960E94F83381E080934E
:10109000C0088093C10801E010E01093BF080093DE
:1010A000BE081093BD080093BC081092B9081092B6
:1010B000B8088AE290E09093BB088093BA0864EB8A
:1010C00077E08CEA98E00E94E73461EA74E08CEA09
:1010D00098E00E94E5348091BF069091C006049785
:1010E00049F41092BD081092BC081093BF080093F9
:1010F000BE0808C01093BF080093BE081093BD0837
:101100000093BC082091DD063091DE0646E0429F48
:10111000C001439F900D1124835C974F0E947E4B2A
:10112000EE24E394F12C00E410E024E430E04AE201
:1011300050E064E470E08CEA98E00E94254682E08A
:101140008093C0088093C10881E090E09093BF082D
:101150008093BE089093BD088093BC089093B90813
:101160008093B80882E390E09093BB088093BA081C
:101170008091BF069091C006039721F41092BD089C
:101180001092BC088091DD069091DE06019729F04F
:101190001092D2061092D10650C06091D70670917D
:1011A000D806072E000C880B990B0E94D55C20E016
:1011B00030E048EC52E40E948F5E20E030E040E8EE
:1011C0005FE30E94185E26E637EF44E65EE30E9486
:1011D000345D9B01AC010E94345D20E030E048E4C6
:1011E00052E40E948F5E2FE632E143E85AE30E9408
:1011F0008F5E0E94F45F20E030E040E251E40E9404
:10120000345D6B017C0120E030E0A9010E94F05FB9
:1012100020E030E040E05FE387FD05C0C701B60194
:101220000E94185E04C0C701B6010E94175E0E94AA
:10123000315F7093D2066093D1068091AB06909196
:10124000AC06892BB1F46CE974E08CEA98E00E945A
:10125000E5346091B7067091B8068091D1069091FF
:10126000D206680F791F77FF34C0719561957109B7
:1012700030C02091B7063091B80684E090E0821B20
:10128000930B2091D1063091D206821B930B181636
:1012900019061CF468EA74E002C06CE974E08CEA98
:1012A00098E00E94E5348091B7069091B8062091AD
:1012B000D1063091D20664E070E0681B790B621BA6
:1012C000730B161617062CF0BC0164507109620FDF
:1012D000731FCE010196BDDDCE0101960E94002351
:1012E000CE0101960E94F833FF24F394F092C008D7
:1012F000F092C10801E010E01093BF080093BE080F
:101300001093BD080093BC0880E390E09093B90867
:101310008093B80888E3C82ED12CD092BB08C09225
:10132000BA086AEA74E08CEA98E00E94D134F0923C
:10133000C008F092C1081093BF080093BE08109334
:10134000BD080093BC0888E490E09093B9088093AE
:10135000B808D092BB08C092BA086BEA77E08CEA72
:1013600098E00E940B350E94D91F26960FB6F8947C
:10137000DEBF0FBECDBFDF91CF911F910F91FF90C8
:10138000EF90DF90CF9008952F923F924F925F920F
:101390006F927F928F929F92AF92BF92CF92DF9285
:1013A000EF92FF920F931F93CF93DF93CDB7DEB7EA
:1013B000CA54D1090FB6F894DEBF0FBECDBF8091DD
:1013C000DD069091DE068130910509F423C10CF011
:1013D00019C1892B09F0C3C66091B7067091B80690
:1013E000CC24DD24C61AD70ADB8ECA8EE091BB0658
:1013F000F091BC06A091B906B091BA0620E432E49F
:101400004FE050E00E94E4616B017C0128EE33E084
:10141000DF010E94DE61C60ED71EE81EF91E809114
:10142000BD069091BE06092E000CAA0BBB0BC80E80
:10143000D91EEA1EFB1E60E08AE00E94D33510929E
:10144000ED061092EE061092EF061092F00682E082
:101450008093F10665E070E08DEE96E00E94A02199
:1014600061E08AE00E94D335DDD760E08AE00E9427
:10147000D33581E08093ED068093EE061092EF065F
:101480001092F00680E28093F10665E070E08DEE48
:1014900096E00E94A02161E08AE00E94D335C2D785
:1014A00021D74B015C01B701A601CE0101960E9434
:1014B000D5304B805C806D807E80DF80DE8EE8845E
:1014C000EAA239842A84B501A401CE0101960E94C2
:1014D000D530AB80BC80CD80DE80EF80F88409857C
:1014E0001A854FEF5FEFBA01CE0101960E94D53009
:1014F0002B813C814D815E816F81788589859A85BC
:101500000E94A43D52016301EE8CFAA0032D122D1E
:101510000E94AF3A00E00E94BA216093CD0670931A
:10152000CE068093CF069093D0068DEC96E09093F4
:10153000CC068093CB0660E08AE00E94D3358EE033
:101540008093ED060A8D1B8DB801110F880B990B46
:101550000E94D55C25E733E948EA52E40E94185E10
:1015600020E030E040EA51E40E948F5E9B01AC0134
:1015700060E070E080E291E40E943F600E94365F8C
:101580007093EE066093EF061092F0061092F1064B
:101590008091D0068093F2068091CF068093F30667
:1015A0008091CE068093F4068091CD068093F50657
:1015B00069E070E08DEE96E00E94A02161E08AE093
:1015C0000E94D3352FD76EEA74E088E897E00E9436
:1015D000E5342AE040E050E0BA0188E897E00E9454
:1015E00061346BE374E088E897E00E949F2C60E030
:1015F00084E00E94D33560E083E00E94D33560E050
:1016000082E0C4C38230910509F4B7C1039709F49D
:10161000C1C3A5C58091D7069091D8066C01990FDA
:10162000EE08FF08CA8EDB8EEC8EFD8EA091DB06E5
:10163000B091DC0628EE33E00E94DE61C090D9064E
:10164000D090DA060D2C000CEE08FF08C60ED71E4F
:10165000E81EF91EE091BB06F091BC06A091B90608
:10166000B091BA0620E432E44FE050E00E94E46119
:101670004B015C0128EE33E0DF010E94DE61AB012B
:10168000BC01480D591D6A1D7B1D8091BD069091BE
:10169000BE06092E000CAA0BBB0B8A019B01080F8A
:1016A000191F2A1F3B1F0E8F1F8F28A339A360917C
:1016B000B7067091B806719561957109072E000CF7
:1016C000880B990B0E94D55C25E733E948EA52E480
:1016D0000E94185E20E030E040EA51E40E948F5EF4
:1016E0009B01AC0160E070E080E291E40E943F6009
:1016F0000E94365F5B0188EE93E0988F8F8B1B868C
:101700001C861D861E861F86188A198A1A8AA701BA
:101710009601BE01655F7F4FCE0147960E949222DF
:101720000F89188D2B853C854D855E856F85788961
:1017300089899A890E94D6136F89788D80E090E01C
:101740000E94D35C9B01AC0160E070E084EB93E409
:101750000E948F5E6AA37BA38CA39DA360E08AE0B6
:101760000E94D33586E1898F61E070E0CE01499611
:101770000E94A021C12CD12C760100E010E095013F
:1017800040E050E02EA33FA348A759A78F89988D2A
:101790000817190708F06AC02BED3FE049E450E450
:1017A000C701B6010E94345D20E030E044E353E419
:1017B0000E948F5E0E948B602B013C016EA17FA175
:1017C00088A599A50E94D35C4B015C0120E030E024
:1017D00040E85FE3C301B2010E94185E9B01AC01C7
:1017E000C501B4010E94345D20E030E040E05FE3D9
:1017F0000E94345D2B013C016A8D7B8D8C8D9D8D0B
:101800000E94D35C20E030E048EC52E40E948F5EFE
:101810009B01AC01C301B2010E94345D9B01AC018C
:10182000C501B4010E94175E0E94365FDC01CB0146
:1018300062E1880F991FAA1FBB1F6A95D1F7BB8B66
:10184000AC8B1D8A1E8A64E070E0CE0143960E9434
:10185000A0212AA13BA14CA15DA1C701B6010E9414
:10186000185E6B017C010F5F1F4F90CF61E08AE033
:101870000E94D335D7D560E08AE00E94D33581E05D
:101880008093ED068093EE061092EF061092F0061C
:1018900080E28093F10665E070E08DEE96E00E94B4
:1018A000A02161E08AE00E94D335BCD560E08AE0E7
:1018B0000E94D3351092ED0680EC8093EE061092D4
:1018C000EF061092F00682E08093F10665E070E08A
:1018D0008DEE96E00E94A02161E08AE00E94D3355F
:1018E000A1D560E08AE00E94D33587E08093ED06C1
:1018F000F9D46B017C014E8D5F8D68A179A1CE0179
:1019000001960E94D5304B805C806D807E808F80F8
:10191000988439842A84B701A601CE0101960E94D9
:10192000D530AB80BC80CD80DE80EF80F884098527
:101930001A854FEF5FEFBA01CE0101960E94D530B4
:101940002B813C814D815E816F81788589859A8567
:101950000E94A43D520163017401032D122D0E94C7
:10196000AF3A00E00E94BA219093EE068093EF0612
:101970007093F0066093F10601C2A091D506B09174
:10198000D60628EE33E00E94DE612091D306309126
:10199000D4068901330F220B330B6B017C01C00E7F
:1019A000D11EE21EF31ECA8EDB8EEC8EFD8EA09140
:1019B000DB06B091DC0628EE33E00E94DE61C090C9
:1019C000D906D090DA060D2C000CEE08FF08C60EE2
:1019D000D71EE81EF91EE091BB06F091BC06A0914F
:1019E000B906B091BA0620E432E44FE050E00E941C
:1019F000E4614B015C0128EE33E0DF010E94DE610F
:101A0000AB01BC01480D591D6A1D7B1D8091BD06AF
:101A10009091BE06092E000CAA0BBB0B8A019B01FC
:101A2000080F191F2A1F3B1F0E8F1F8F28A339A3D2
:101A300088EE93E0988F8F8B1B861C861D861E86F2
:101A40001F86188A198A1A8AA7019601BE01655F46
:101A50007F4FCE0147960E9492220F89188D2B85C9
:101A60003C854D855E856F85788989899A899ED662
:101A70006F89788D80E090E00E94D35C9B01AC017F
:101A800060E070E084EB93E40E948F5E6AA37BA326
:101A90008CA39DA360E08AE00E94D33586E1898F04
:101AA00061E070E0CE0149960E94A0211BD4AB01F9
:101AB000BC018E010F5F1F4FC8010E94D5302B81E2
:101AC0002DAF3C813EAF4D814FAF5E8121965FAF20
:101AD00021978F8122968FAF2297988523969FAF6B
:101AE0002397A9852496AFAF2497BA852596BFAFD3
:101AF00025974FEF5FEFBA01C8010E94D530CB8028
:101B0000CDAADC80DEAAED80EFAAFE80F8AE2F81A0
:101B100029AF38853AAF49854BAF5A855CAF412C28
:101B2000512C3201812C912C26960FAF26972796A7
:101B30001FAF27978F89988D8816990608F09BC04C
:101B40002BED3FE049E450E4C301B2010E94345D53
:101B500020E030E044E353E40E948F5E0E948B60FB
:101B60009B01AC016E8D7F8D88A199A128962FAF26
:101B7000289729963FAF29972A964FAF2A972B96F9
:101B80005FAF2B970E94D35C6B017C016A8D7B8DCC
:101B90008C8D9D8D0E94D35C28962FAD2897299619
:101BA0003FAD29972A964FAD2A972B965FAD2B977D
:101BB0000E94345D9B01AC01C701B6010E94185E12
:101BC0000E94365FAB01BC0126968FAD2697279603
:101BD0009FAD27970E94D5303B808C818EA39D813D
:101BE0009AA72E80AF81AEA7B885BAABC984CBAA1D
:101BF000DA84DCAAADACBEACCFAC2196DFAC2197C9
:101C00002296EFAC22972396FFAC239724960FAD34
:101C1000249725961FAD25972DA93EA94FA958AD0C
:101C200069AD7AAD8BAD9CAD0E94A43DA32CBEA046
:101C3000CAA4D22CEEA4FAA80BA91CA90E94AF3A00
:101C400000E00E94BA219B8B8C8B7D8B6E8B64E0B5
:101C500070E0CE0143960E94A0212AA13BA14CA195
:101C60005DA1C301B2010E94185E2B013C010FEF80
:101C7000801A900A5FCF61E08AE00E94D335D2D308
:101C800064EB74E088E897E00E94D1346091B70675
:101C90007091B80600271127061B170B60E08AE039
:101CA0000E94D33581E08093ED068093EE0610927A
:101CB000EF061092F00680E28093F10665E070E096
:101CC0008DEE96E00E94A02161E08AE00E94D3356B
:101CD000A9D360E08AE00E94D3351092ED0680E837
:101CE0008093EE061092EF0682E08093F0068093D8
:101CF000F10665E070E08DEE96E00E94A02161E0C3
:101D00008AE00E94D3358ED3B801110F880B990B4E
:101D10000E94D55C25E733E948EA52E40E94185E48
:101D200020E030E040EA51E40E948F5E9B01AC016C
:101D300060E070E080E291E40E943F600E94365FC4
:101D40006B017C0160E08AE00E94D33589E08093DA
:101D5000ED061092EE061092EF06C60146E096954B
:101D600087954A95E1F78093F006CC0CDD1CCC0CEE
:101D7000DD1C1CEFC122DD24C092F10665E070E09D
:101D80008DEE96E00E94A02161E08AE00E94D335AA
:101D900049D3E5C11091EB06E0901002F0901102DA
:101DA00094D52B013C01C9D5CBD26AA77BA78CA7C0
:101DB0009DA7C301B201C4D26EA77FA788AB99AB20
:101DC0002B013C012AA53BA54CA55DA5421A530A4F
:101DD000640A750A11110AC0B70180E090E00E9400
:101DE000D35C28E23BE64EE65EE417C0113051F4C6
:101DF000B70180E090E00E94D35C20E034E244E749
:101E000059E40BC0123099F4B70180E090E00E94D1
:101E1000D35C20E030E04AE754E40E94345D0E9445
:101E2000FC5E2A8F3E8F4AA35EA31B014C0160918A
:101E300000027091010280910202909103020E94BF
:101E4000D35C28E23BE64EE65EE40E948F5E9B0197
:101E5000AC0160E070E080E890E40E948F5E6B016E
:101E60007C01C301B2010E94D35C9B01AC01C7019C
:101E7000B6010E94345D0E94FC5E2CAB3DAB2A0192
:101E8000662E7EAB8FAB792E662D972DAA8CBE8CDD
:101E9000CAA0DEA0710184010E948763C0F595018C
:101EA000A601B101C4010E94625F6B017C012CA9F3
:101EB0003DA9A201662D7EA98FA9972D0E94625F80
:101EC0009B01AC01C701B6010E948F5E6B017C01D2
:101ED00020E030E0A9010E94F05F20E030E040E027
:101EE0005FE387FD05C0C701B6010E94185E04C00C
:101EF000C701B6010E94175E0E94315F611571052E
:101F000031E08307910538F46AAB7BAB08C041E050
:101F10004AAB1BAA04C05FEF5AAB8FEF8BAB2CA967
:101F20003DA9A201662D7EA98FA9972DAA8CBE8CF2
:101F3000CAA0DEA0710184010E94876369F160F18B
:101F40000E94625F6B017C0195014AA15EA1B10113
:101F5000C4010E94625F9B01AC01C701B6010E94EF
:101F60008F5E6B017C0120E030E0A9010E94F05FF0
:101F700020E030E040E05FE387FD05C0C701B60127
:101F80000E94185E04C0C701B6010E94175E0E943D
:101F9000315F6B017C0104C0C12CD12C7601C3944C
:101FA00060E08AE00E94D3351EE01093ED068FE3D7
:101FB0008093EE068FEF8093EF061092F00610925A
:101FC000F1061092F2061092F3061092F4061092A7
:101FD000F50669E070E08DEE96E00E94A02161E0D8
:101FE0008AE00E94D3351ED260E084E00E94D3359F
:101FF00060E083E00E94D33560E082E00E94D33548
:1020000060E08AE00E94D3351092ED061092EE0651
:102010001092EF061092F00682E08093F10665E0E0
:1020200070E08DEE96E00E94A02161E08AE00E94BF
:10203000D335F8D160E08AE00E94D3358BE08093FD
:10204000ED0699A99093EE06A8A9A093EF06BFA567
:10205000B093F0060EA50093F1062DA52093F2068D
:102060003CA53093F3064BA54093F4065AA5509334
:10207000F50669E070E08DEE96E00E94A02161E037
:102080008AE00E94D335CED160E08AE00E94D33549
:102090008CE08093ED068F2C9924AA24BB24809297
:1020A000EE06A701662777274093EF06BB27AF2DE3
:1020B0009E2D8D2D8093F006C092F1068092F2063F
:1020C0004093F3068093F406C092F50669E070E051
:1020D0008DEE96E00E94A02161E08AE00E94D33557
:1020E000A1D160E08AE00E94D3358DE08093ED06B7
:1020F0008BA98093EE069AA99093EF068093F00641
:102100009093F10665E070E08DEE96E00E94A021CC
:1021100061E08AE00E94D33585D160E08AE00E94C8
:10212000D33581E08093ED061092EE061093EF0612
:102130001092F0061092F10665E070E08DEE96E0E8
:102140000E94A02161E08AE00E94D3356BD161E05A
:1021500087E00E94023661E087E00E94D335C65BCB
:10216000DF4F0FB6F894DEBF0FBECDBFDF91CF912A
:102170001F910F91FF90EF90DF90CF90BF90AF90A5
:102180009F908F907F906F905F904F903F902F9097
:102190000895EF92FF920F931F93CF93DF931F92B7
:1021A000CDB7DEB77C01FC0100811181C8016983D4
:1021B0000E94E85D6981681719F0C8010E94F05D0E
:1021C000C7010F90DF91CF911F910F91FF90EF907A
:1021D0000895EF92FF920F931F93CF93DF931F9277
:1021E0001F92CDB7DEB78C017B01FB0160819A8322
:1021F0008983CE010196CDDFF70161810F5F1F4F0B
:102200001A830983CE010196C4DFC7010F900F9096
:10221000DF91CF911F910F91FF90EF900895CF9292
:10222000DF92EF92FF921F93CF93DF936C017B01BC
:102230000E948021CCEAD8E011E0188F92E09C8BBC
:102240009D8B21E030E03B8B2A8B398B288B1D86C0
:102250001C861F861E86C6010E9400231C8B1D8BB8
:1022600085E090E09D878C878CE190E09F878E874A
:10227000C7010E940023DF91CF911F91FF90EF9043
:10228000DF90CF900C94D91F0F931F93CF93DF93C0
:102290000E948021CCEAD8E082E08C8B8D8B81E09B
:1022A00090E09B8B8A8B998B888B08E210E01D87CE
:1022B0000C871F861E86888F6EE374E0CE010E9415
:1022C000D1341D870C8780E290E09F878E876CEC6D
:1022D00074E0CE010E94E534DF91CF911F910F9100
:1022E0000C94D91FCF92DF92EF92FF92C090A70675
:1022F000D090A806E090A906F090AA06609100028E
:10230000709101028091020290910302A70196014F
:102310000E94B4618091B1069091B206092E000C22
:10232000AA0BBB0BC80ED91EEA1EFB1ED901A701C2
:1023300096010E94E461FF90EF90DF90CF900895A6
:102340002F923F924F925F926F927F928F929F92C5
:10235000AF92BF92CF92DF92EF92FF920F931F93B3
:10236000CF93DF93CDB7DEB72A970FB6F894DEBFD1
:102370000FBECDBF4B015C01B5DF6B017C01B50128
:10238000A401CE0101960E94D5303B804C805D8037
:102390006E807F80888499842A84B701A601CE014B
:1023A00001960E94D530AB80BC80CD80DE80EF806E
:1023B000F88409851A854FEF5FEFBA01CE010196C7
:1023C0000E94D5302B813C814D815E816F81788563
:1023D00089859A850E94A43DA32CB42CC52CD62CAB
:1023E000E72CF82C092D122D0E94AF3A00E00E9434
:1023F000BA212A960FB6F894DEBF0FBECDBFDF918B
:10240000CF911F910F91FF90EF90DF90CF90BF90F1
:10241000AF909F908F907F906F905F904F903F9084
:102420002F900895CF93DF93C3E2D0E0CE010197C0
:10243000F1F760E086E00E94D335CE010197F1F715
:1024400061E086E00E94D335CE010197F1F760E0AC
:1024500086E00E94D3352197F1F7DF91CF9108955F
:10246000CF92DF92EF92FF920F931F93CF93DF9360
:1024700000D01F92CDB7DEB7182FF62E61E08DE0A9
:1024800029833A834B835C830E94023661E08BE0B0
:102490000E94023660E08CE00E94023661E08AE031
:1024A0000E94023661E086E00E94023661E089E027
:1024B0000E94023661E089E30E94023661E084E016
:1024C0000E94023661E083E00E94023661E082E011
:1024D0000E94023661E088E20E94023661E086E2F4
:1024E0000E94023661E087E20E94023661E089E2E2
:1024F0000E94023661E088E00E94023661E085E0D9
:102500000E94023661E087E00E94023660E08AE2C3
:102510000E94023660E08EE20E94023660E08FE2A6
:102520000E94023660E08DE20E94023660E08CE29A
:102530000E94023660E086E00E94D33560E089E3C5
:102540000E94D33560E08AE00E94D33560E088E2E3
:102550000E94D33560E084E00E94D33560E083E0E0
:102560000E94D33560E082E00E94D33560E088E0CD
:102570000E94D33560E087E00E94D33560E085E0BB
:102580000E94D33561E089E30E94D33583E290E075
:102590000197F1F760E089E30E94D33560E086E0BF
:1025A0000E94D33561E08AE00E94D33561E088E281
:1025B0000E94D33560E084E00E94D33560E083E080
:1025C0000E94D33560E082E00E94D3350E94E14A48
:1025D0009CB5937F9CBD9CB59C7F91609CBD9DB537
:1025E00091609DBD9CB59F7D9CBD60E08AE00E948E
:1025F000D3351092ED061092EE061092EF0610926F
:10260000F00602E00093F10665E070E08DEE96E0E2
:102610000E94A02161E08AE00E94D33503DF60E0E0
:102620008AE00E94D33591E09093ED069093EE06F8
:102630001092EF061092F00680E28093F10665E0BA
:1026400070E08DEE96E00E94A02161E08AE00E9499
:10265000D335E8DE29813A814B815C8160E08AE0F4
:10266000113091F00E94D3350093ED061092EE06E2
:102670001092EF06FF2011F080E401C080EC8093FF
:10268000F0061092F10658C029833A834B835C838D
:102690000E94D3350093ED06609100027091010213
:1026A000809102029091030229813A814B815C81E1
:1026B0006130EAEC7E07EAE98E07EBE39E0710F44F
:1026C000E3E001C0E5E0E093EE06E8E3E093EF0627
:1026D000E1E4E093F00629833A834B835C830E9414
:1026E000D35C6B017C0129813A814B815C81CA01F9
:1026F000B9010E94D35C9B01AC01C701B6010E94E5
:102700008F5E6B017C0120E030E0A9010E94F05F48
:1027100020E030E040E05FE387FD05C0C701B6017F
:102720000E94185E04C0C701B6010E94175E0E9495
:10273000315F660F6093F10665E070E08DEE96E024
:102740000E94A02161E08AE00E94D3356BDE60E048
:102750008AE00E94D33583E08093ED061092EE0666
:102760001092EF061092F0068091AB069091AC06A5
:10277000892B11F48FE701C08FEF8093F10665E09C
:1027800070E08DEE96E00E94A02161E08AE00E9458
:10279000D3350F900F900F900F90DF91CF911F9135
:1027A0000F91FF90EF90DF90CF903CCE4F925F92D1
:1027B0006F927F928F929F92AF92BF92EF92FF9211
:1027C0000F931F93CF93DF932901CDEED6E08EE0D8
:1027D00088831982E32EFF24EA822B83015011099A
:1027E00096E0000F111F9A95E1F71C830D8362EDAF
:1027F00074E088E897E00E94E5348E2D0E947B22E9
:1028000061EF74E088E897E00E94E534842D0E942F
:102810007B226FE075E088E897E00E94E534812F25
:102820000E947B226FE175E088E897E00E94E53422
:10283000802F0E947B221E821F8284E0888760E0B6
:102840008AE00E94D33569E070E0CE010E94A021A9
:1028500061E08AE00E94D335E5DD60E084E00E941B
:10286000D33560E083E00E94D33560E082E00E94CF
:10287000D335DF91CF911F910F91FF90EF90BF90D3
:10288000AF909F908F907F906F905F904F90CACD48
:102890008EBD00000DB407FEFDCF8EB508950F93D9
:1028A0001F93CF93DF938C01EB010E94E85D888337
:1028B000C80101960E94E85D8983CE01DF91CF9126
:1028C0001F910F9108950C94F05DCF92DF92EF92DB
:1028D000FF920F931F93E091E706F091E806A09115
:1028E000E506B091E60620E432E44FE050E00E94B5
:1028F000E4616B017C0128EE33E0DF010E94DE61C0
:10290000AB01BC014C0D5D1D6E1D7F1D8091E90664
:102910009091EA06092E000CAA0BBB0B8A019B01C1
:10292000080F191F2A1F3B1FC901B8011F910F91E2
:10293000FF90EF90DF90CF900895CF92DF92EF92CB
:10294000FF920F931F93E091E106F091E206A091B0
:10295000DF06B091E00620E432E44FE050E00E9450
:10296000E4616B017C0128EE33E0DF010E94DE614F
:10297000AB01BC014C0D5D1D6E1D7F1D8091E306FA
:102980009091E406092E000CAA0BBB0B8A019B0157
:10299000080F191F2A1F3B1FC901B8011F910F9172
:1029A000FF90EF90DF90CF9008952F923F924F923B
:1029B0005F926F927F928F929F92AF92BF92CF92CF
:1029C000DF92EF92FF920F931F93CF93DF93CDB7D8
:1029D000DEB760970FB6F894DEBF0FBECDBF75DFD0
:1029E000AFDC2B013C01A9DFABDC461A570A680AB1
:1029F000790A78DC0E94D35C28E23BE64EE65EE48E
:102A00000E948F5E9B01AC0160E070E080E890E482
:102A10000E948F5E6D877E878F87988BC301B2017E
:102A20000E94D35C9B01AC016D857E858F85988962
:102A30000E94345D20E03FEF4FE757E40E94345D91
:102A40000E94FC5E322E232E742E652E562E472EAB
:102A5000982E892E8091EB069091EC06009779F4E0
:102A60006091100270911102072E000C880B990BD7
:102A70000E94D55C28E23BE64EE65EE422C081304F
:102A8000910579F46091100270911102072E000CEB
:102A9000880B990B0E94D55C20E034E244E759E4AE
:102AA00010C00297B1F46091100270911102072ECC
:102AB000000C880B990B0E94D55C20E030E04AE7BF
:102AC00054E40E94345D0E94FC5E59016A017B015E
:102AD0008C019501A601B701C801A32CB22CC72C0B
:102AE000D62CE52CF42C092D182D0E94876309F0B3
:102AF00008F4A1C0232D322D472D562D652D742DA0
:102B0000892D982D0E94625F6B017C0120E030E0EE
:102B10004AE754E40E94CF5C87FF08C0C10190934C
:102B200010028093110283E090E01AC020E034E2AA
:102B300044E759E4C701B6010E94CF5C87FF15C086
:102B400020E030E04AE754E4C701B6010E948F5EFE
:102B50000E94315F709311026093100282E090E056
:102B60009093EC068093EB062DC028E23BE64EE600
:102B70005EE4C701B6010E94CF5C87FF11C020E070
:102B800034E244E759E4C701B6010E948F5E0E9417
:102B9000315F709311026093100281E090E0E0CF0A
:102BA00028E23BE64EE65EE4C701B6010E948F5E76
:102BB0000E94315F70931102609310021092EC0634
:102BC0001092EB0618861F821A8619861C861B86B1
:102BD0006DE070E0CE0107960E947033811105C050
:102BE000CE0107960E9497330AC08DE090E09C8743
:102BF0008B876BED77E08F8198850E948B5C6EE20E
:102C000075E0CE0101960E944D34BE01695F7F4F91
:102C1000CE01019604DBCE0101960E94F833CE016D
:102C200007960E94F83364EC79E080E090E00E941F
:102C30003E3681E001C080E060960FB6F894DEBFBA
:102C40000FBECDBFDF91CF911F910F91FF90EF90FD
:102C5000DF90CF90BF90AF909F908F907F906F90BC
:102C60005F904F903F902F9008958F929F92AF92D8
:102C7000BF92CF92DF92EF92FF921F93CF93DF9399
:102C8000CDB7DEB72C970FB6F894DEBF0FBECDBF21
:102C900054DE4B015C0119DE681579058A059B0538
:102CA00008F056C028EEC22E23E0D22EE12CF12CE3
:102CB000A70196010E94B4617093E4066093E30655
:102CC000CA01B901A70196010E94B4617093E2069E
:102CD0006093E1063093E0062093DF06C501B4015E
:102CE000A70196010E94B4617093EA066093E90619
:102CF000CA01B901A70196010E94B4617093E80668
:102D00006093E7063093E6062093E50664E375E0FA
:102D1000CE0107960E944D346EE275E0CE01019619
:102D20000E944D34BE01695F7F4FCE01019677DA74
:102D3000CE0101960E94F833CE0107960E94F83327
:102D400068EB7BE080E090E00E943E3610E001C03E
:102D500011E0F3DD61307644834C934278F11092B8
:102D6000E4061092E3061092E2061092E10688E56E
:102D700092E09093E0068093DF0667E675E0CE016F
:102D800007960E944D346EE275E0CE0101960E94D6
:102D90004D34BE01695F7F4FCE01019640DACE010E
:102DA00001960E94F833CE0107960E94F83364EC36
:102DB00079E080E090E00E943E3610E0BEDD603AAF
:102DC00076488140910578F51092E4061092E3066A
:102DD00084E690E09093E2068093E1061092E0068C
:102DE0001092DF0663E875E0CE0107960E944D342D
:102DF0006EE275E0CE0101960E944D34BE01695F1E
:102E00007F4FCE0101960BDACE0101960E94F83376
:102E1000CE0107960E94F83364EC79E080E090E000
:102E20000E943E3610E051DD61307644834C93427F
:102E300078F11092EA061092E9061092E8061092D4
:102E4000E70688E592E09093E6068093E5066EE952
:102E500075E0CE0107960E944D346EE275E0CE011A
:102E600001960E944D34BE01695F7F4FCE010196ED
:102E7000D6D9CE0101960E94F833CE0107960E9462
:102E8000F83364EC79E080E090E00E943E3610E098
:102E90001CDD603A76488140910578F51092EA068B
:102EA0001092E90684E690E09093E8068093E706A6
:102EB0001092E6061092E50669EB75E0CE010796E2
:102EC0000E944D346EE275E0CE0101960E944D34B1
:102ED000BE01695F7F4FCE010196A1D9CE01019657
:102EE0000E94F833CE0107960E94F83364EC79E033
:102EF00080E090E00E943E3610E01FDD6B017C0117
:102F0000E4DCC616D706E806F90609F563ED75E0B8
:102F1000CE0107960E944D346EE275E0CE01019617
:102F20000E944D34BE01695F7F4FCE01019677D973
:102F3000CE0101960E94F833CE0107960E94F83325
:102F400064EC79E080E090E00E943E3610E0812F52
:102F50002C960FB6F894DEBF0FBECDBFDF91CF9198
:102F60001F91FF90EF90DF90CF90BF90AF909F9018
:102F70008F90089569EB76E088E190E02AD96BEBB9
:102F800076E08CE190E025D96DEB76E080E290E090
:102F900020D967EB76E084E290E01BD967E384E612
:102FA00090E091CC6DED76E088E290E012D96BED87
:102FB00076E08CE290E00DD969ED76E080E390E078
:102FC00008D967ED76E084E390E003D965ED76E01B
:102FD00088E390E0FED863ED76E08CE390E0F9D8EA
:102FE0006FED76E082E490E0F4D861EE76E084E480
:102FF00090E0EFD863EE76E086E490E0EAD865EE04
:1030000076E088E490E0E5D867EE76E08AE490E048
:10301000E0D869EE76E08CE490E0DBD860E172E025
:103020008EE490E0D6D86BEE76E080E590E0D1D8E3
:1030300068E386E690E047CC84E690E09093E00673
:103040008093DF0688EC90E09093E6068093E50697
:1030500086E690E00E94E85D8833B9F11092DE06C2
:103060001092DD0681E090E09093DC068093DB0611
:103070001092DA061092D90622E330E03093D80697
:103080002093D70623E030E03093D6062093D50670
:103090001092D4061092D3061092E2061092E10626
:1030A0001092E4061092E3061092E8061092E706EA
:1030B0001092EA061092E906909311028093100292
:1030C0001092EC061092EB066DCF6DED76E088E283
:1030D00090E0E5DB6BED76E08CE290E0E0DB69ED23
:1030E00076E080E390E0DBDB67ED76E084E390E080
:1030F000D6DB65ED76E088E390E0D1DB63ED76E04A
:103100008CE390E0CCDB6FED76E082E490E0C7DB0F
:1031100061EE76E084E490E0C2DB63EE76E086E484
:1031200090E0BDDB65EE76E088E490E0B8DB67EE2A
:1031300076E08AE490E0B3DB69EE76E08CE490E040
:10314000AEDB60E172E08EE490E0A9DB6BEE76E04E
:1031500080E590E0A4CBEF92FF920F931F93CF9363
:10316000DF93EC0177FDA4C0EC80FD806E157F0538
:103170000CF09EC057FF04C0240F351F40E050E004
:103180008E819F81FA01E20FF31F8E179F071CF4B7
:103190009C01241B350B121613060CF089C0922FCC
:1031A000842F8695869586958E9DD0018F9DB00D36
:1031B00011246A0F7B1FAF8DB8A1A60FB71F4770F0
:1031C000A9F188E0841B482F682F70E0FB01EF50C5
:1031D000F84FE491281790F4621B71092FEF30E04B
:1031E00002C0359527956A95E2F7E2230130110573
:1031F00041F070F00230110579F05AC0013011052C
:1032000019F48C91E82B0AC00130110508F049C06F
:10321000E0958C91E82302C08C91E827EC932C81F7
:103220003D81941708F444C0A20FB31FE92FE41B9B
:10323000E830F8F00230110561F48E2F9C919095E2
:103240009C932C813D81A20FB31F88508830B0F72A
:103250000FC081E00115110509F480E081959E2FD2
:103260008C932C813D81A20FB31F98509830C0F7EA
:10327000E770EE23E9F0F0E0E751F84FE491013018
:10328000110539F048F00230110591F48C91E827CE
:1032900006C08C91E82B03C0E0958C91E823EC9359
:1032A00007C00230110509F4B7CFAE0DBF1DBECF68
:1032B000DF91CF911F910F91FF90EF900895FC0146
:1032C00077FDB9C080859185681779070CF0B3C088
:1032D00057FDB1C082859385481759070CF00895B2
:1032E0008689823079F484819581DC01A61BB70B35
:1032F000BD016150710986819781DC01A41BB50B6A
:10330000AD010EC0833009F084C064277527CB015E
:10331000842795276827792746815781481B590BB1
:10332000415051092130310531F048F12230310549
:1033300009F44AC00895CA0157FD07969C01A3E00D
:1033400035952795AA95E1F7A481B5812A9FC001FB
:103350002B9F900D3A9F900D1124680F791F078CB9
:10336000F0A1E02DE60FF71F4770552781E090E0B0
:1033700001C0880F4A95EAF79081892B48C0CA019D
:1033800057FD07969C0193E0359527959A95E1F7AF
:10339000A481B5812A9FC0012B9F900D3A9F900D6B
:1033A0001124680F791F078CF0A1E02DE60FF71F9D
:1033B0004770552781E090E001C0880F4A95EAF7F1
:1033C00080959081892323C0CA0157FD07969C01EF
:1033D00083E0359527958A95E1F7A481B5812A9FE9
:1033E000C0012B9F900D3A9F900D1124680F791FFB
:1033F000078CF0A1E02DE60FF71F4770552781E0FD
:1034000090E001C0880F4A95EAF790818927808370
:103410000895813009F086CF6427752746275727FE
:103420006427752784819581DC01A61BB70BBD013C
:103430006150710977CF089585ED8093BC0080912C
:10344000BC0084FDFCCF1092A4060895409138077B
:10345000262F30E0240F311D21323105DCF420917C
:10346000A4062430C9F4FC0180E090E0861758F4EB
:10347000309138072191DC01AA5EB84FA30FB11D2E
:103480002C930196F3CF80913807680F609338072B
:1034900080E0089581E0089582E00895089581E034
:1034A00090E03091A6062091A506321710F480E036
:1034B00090E091958195910908958091A60690914B
:1034C000A506891730F48F5F8093A60680E090E010
:1034D00008958FEF9FEF08958091A50690E02091C9
:1034E000A606821B91090895CF92DF92EF92FF9278
:1034F0000F931F93CF93DF937C01262F972F8A0181
:1035000080918707882391F0C62FD72F6E01C40EB4
:10351000D51ECC15DD0569F06991D701ED91FC91BF
:103520000190F081E02DC7011995F3CF642F822F10
:103530008DDFC801DF91CF911F910F91FF90EF9028
:10354000DF90CF900895CF93DF931F92CDB7DEB772
:103550006983209187072223D1F0209184072032AC
:1035600040F021E030E0FC013383228380E090E0F2
:1035700014C080918507E82FF0E0EA50F94F998157
:1035800090838F5F809385078093840704C061E0F8
:10359000CE0101965BDF81E090E00F90DF91CF914B
:1035A0000895089580E090E008950F931F93CF93BE
:1035B000DF93DC015696EC915697E23071F0E330E0
:1035C000E9F0E13079F5FB0114960D90BC91A02D46
:1035D000A41BB50BA21BB30B18C0EC01EC81FD8141
:1035E000E61BF70BBF0161507109EE81FF81DF011E
:1035F000A41BB50BAD01421B530B14C0DA01EC0147
:10360000EE81FF81E61BF70B3197F7FD0CC0EC0153
:103610004E815F81E417F50734F4AF01BD010E94CC
:10362000174B01C098DDDF91CF911F910F91089545
:103630000F931F93DC015696EC915697E23061F0A0
:10364000E33009F1E13079F51496ED91FC9115978D
:10365000E41BF50B319723C0DC011496ED91FC912E
:103660001597DF01A61BB70BBD01DC011696ED9186
:10367000FC911797DF01A41BB50BAD014150510917
:10368000621B730B10C0FA01DC0116964D915C9120
:103690001797DA01A61BB70BBD01621B730BAB01B9
:1036A000BF0159DD0CC057FD0AC0DC011696ED9133
:1036B000FC9117974E175F0714F40E94174B1F9148
:1036C0000F910895AF92BF92CF92DF92EF92FF9247
:1036D0000F931F93CF93DF931F921F92CDB7DEB747
:1036E0008B016B0124E0C20ED11C7B015C01A61A88
:1036F000B70A95012E0D3F1DF70161917F013A83B5
:103700002983CE0101960E94C910EC14FD0489F7AB
:10371000C8010F900F90DF91CF911F910F91FF90F3
:10372000EF90DF90CF90BF90AF900895EF92FF920F
:103730000F931F93CF93DF931F921F92CDB7DEB7E6
:103740008C017B01FB0160819A838983CE01019604
:103750000E94C910F70161810F5F1F4F1A8309830F
:10376000CE0101960E94C910C7010F900F90DF9102
:10377000CF911F910F91FF90EF9008950F931F939A
:10378000CF93DF938C01EB010E94E85D8883C80131
:1037900001960E94E85D8983CE01DF91CF911F9150
:1037A0000F910895CF92DF92EF92FF920F931F93A4
:1037B000CF93DF93EB017B0124E0E20EF11C8B0140
:1037C0006C01C61AD70AC601800F911F0E94E85DDE
:1037D000F80181938F01EE15FF05A9F7CE01DF9166
:1037E000CF911F910F91FF90EF90DF90CF900895B0
:1037F00008958CBD9DBD08951F920F920FB60F9234
:1038000011240BB60F922F933F934F935F936F93B7
:103810007F938F939F93AF93BF93EF93FF93809189
:10382000B900887F803609F49CC068F5883209F4B5
:103830005BC090F4803109F454C038F4882309F453
:10384000F6C0883009F44DC0F5C0883109F44CC089
:10385000803209F45DC0EEC0803409F468C048F4D9
:10386000803309F455C0883309F0E4C080935D07C4
:10387000D8C0803509F44FC0883509F45DC088345C
:1038800009F0D8C0D6C0883909F4C7C0A8F4883771
:1038900009F467C038F4883609F463C0803709F446
:1038A00060C0C8C0883809F4B8C0803909F45FC066
:1038B000803809F0BFC05BC0803B09F486C038F493
:1038C000803A09F466C0883A09F47FC0B3C0803CEE
:1038D00009F4A7C0883C09F4A4C0883B09F48AC055
:1038E000A9C08091800710C090917F0780917E07CA
:1038F000981770F5E0917F0781E08E0F80937F0726
:10390000F0E0E25AF84F80818093BB0085EC86C0DE
:1039100080935D078EC0E0917F0781E08E0F8093DA
:103920007F078091BB00F0E0E25AF84F80839091CE
:103930007F0780917E076EC0E0917F0781E08E0F48
:1039400080937F078091BB00F0E0E25AF84F8083BC
:103950008091A30681116DC081E08093A20684EA64
:1039600061C083E08093A40610925C07CFCF809162
:103970005C07803208F051C0E0915C0781E08E0F57
:1039800080935C078091BB00F0E0E45CF84F80839B
:10399000BDCF85EC8093BC001092A40680915C079B
:1039A000803230F4E0915C07F0E0E45CF84F108284
:1039B00060915C0770E0E0913A07F0913B078CE37F
:1039C00097E0199510925C0735C084E08093A406B7
:1039D0001092390710923807E0913607F0913707B7
:1039E000199580913807811105C081E080933807CF
:1039F00010921607E091390781E08E0F8093390706
:103A0000F0E0EA5EF84F80818093BB009091390727
:103A100080913807981708F479CF85E88093BC0027
:103A200009C085EC8093BC001092A40603C01092DC
:103A30005D0702DDFF91EF91BF91AF919F918F9153
:103A40007F916F915F914F913F912F910F900BBE9E
:103A50000F900FBE0F901F9018959B01AC0160E076
:103A600074E284EF90E00E94B461DA01C9014097EA
:103A7000A109B109B695A795979587958093B80048
:103A800008952091840790918607213208F04AC05A
:103A90008091A4068111FCCF32E03093A40631E07E
:103AA0003093A3063FEF30935D0710927F0720937A
:103AB0007E07A6EFB6E04EE557E0FA013E2F341B35
:103AC000321718F43D913193F9CF1092800720916D
:103AD0008007990F922B909380079091A2069130C6
:103AE00061F41092A206909180079093BB00909190
:103AF000BC0093FDF8CF95EC01C095EE9093BC000F
:103B00009091A4069230E1F390915D079F3F79F088
:103B100080915D07803241F080915D07803331F004
:103B200084E005C081E003C082E001C083E0109220
:103B30008507109284071092870708951F93CF93EB
:103B4000DF93FC01858D968D009721F1162FEF01F3
:103B500021A131E0309387072093860710928507D3
:103B600010928407DC01ED91FC910190F081E02D31
:103B700060E019958D8D9E8DDC01ED91FC91019099
:103B8000F081E02D612F19958D8D9E8DDF91CF9164
:103B90001F9177CFA5A5B6A59C9183A98095892370
:103BA0008C93838D948D892B31F0862FDF91CF916B
:103BB0001F910C94481428E030E080E8A1A5B2A53C
:103BC00091A9482F462319F04C91942B03C04C9196
:103BD000909594239C93A3A5B4A54C9192A9942B62
:103BE0009C93A3A5B4A54C9192A9909594239C93E2
:103BF00086952150310911F7DF91CF911F910895DA
:103C0000CF9365EB76E080E090E090DD6FEA76E0C0
:103C100082E090E08BDD6DEA76E084E090E086DD86
:103C200063EB76E086E090E081DD64E072E088E0BE
:103C300090E048DD60E072E08CE090E043DD6BEA0C
:103C400076E084E190E072DD61EB76E080E490E084
:103C50006DDD8091B5069091B6068230910531F107
:103C6000009759F4E091AF06F091B006EE0FFF1FF8
:103C7000EE0FFF1FEC5CFD4F0CC0019749F5E09182
:103C8000AD06F091AE06EE0FFF1FEE0FFF1FE45ED4
:103C9000FD4F80819181A281B3818093A70690938B
:103CA000A806A093A906B093AA0612C080910402A8
:103CB00090910502A0910602B09107028093A70699
:103CC0009093A806A093A906B093AA06C0E001C0ED
:103CD000C1E068E385E690E00E94F05D2091A706D0
:103CE0003091A8064091A9065091AA0661E0809102
:103CF000B3069091B406892B09F460E08C2FCF9124
:103D00000C94301285E690E00E94E85D883371F1F2
:103D10001092B6061092B5061092B0061092AF0639
:103D20001092AE061092AD061092B4061092B30631
:103D300080E09AECAAE9BBE3809304029093050229
:103D4000A0930602B09307028093000290930102B1
:103D5000A0930202B09303021092AC061092AB063D
:103D60001092B2061092B1064BDF28C065EB76E0E8
:103D700080E090E003DD6FEA76E082E090E0FEDC38
:103D80006DEA76E084E090E0F9DC63EB76E086E0D3
:103D900090E0F4DC64E072E088E090E003DD60E055
:103DA00072E08CE090E0FEDC6BEA76E084E190E08B
:103DB000E5DC61EB76E080E490E0E0DC8091B50644
:103DC0009091B6068230910531F1009759F4E09157
:103DD000AF06F091B006EE0FFF1FEE0FFF1FEC5C79
:103DE000FD4F0CC0019749F5E091AD06F091AE068C
:103DF000EE0FFF1FEE0FFF1FE45EFD4F80819181EC
:103E0000A281B3818093A7069093A806A093A906E8
:103E1000B093AA0612C08091040290910502A0916D
:103E20000602B09107028093A7069093A806A0937C
:103E3000A906B093AA0680E001C081E02091A70600
:103E40003091A8064091A9065091AA0661E0E09140
:103E5000B306F091B406EF2B09F460E00C94301235
:103E6000FF920F931F93CF93DF93EC01F62E809177
:103E7000C9089091CA08009709F44FC02091CD0855
:103E800031E03093870720938607109285071092C0
:103E90008407DC01ED91FC910190F081E02D60E060
:103EA00019958E01D1E0CF0DFF24F3948091C908BC
:103EB0009091CA08C01759F1D032C0F0E2DD80916C
:103EC000CD08F0928707809386071092850710929D
:103ED00084078091C9089091CA08DC01ED91FC919A
:103EE0000190F081E02D60E01995D1E08091C90842
:103EF0009091CA08F8016491DC01ED91FC91019068
:103F0000F081E02D1995DF5F0F5F1F4FCFCFDF915D
:103F1000CF911F910F91FF90B4CDE091D908F0910E
:103F2000DA0820818091DF088095822380838E01CA
:103F3000C60FC017C1F1F80184912091C7083091D4
:103F4000C808232B19F00E9448142AC028E030E04A
:103F500040E8E091D508F091D6089091DD08542F03
:103F6000582319F05081952B03C0508190959523CB
:103F70009083E091D708F091D80850819091DE08A5
:103F8000952B9083E091D708F091D80850819091BB
:103F9000DE08909595239083469521503109C9F606
:103FA0000F5F1F4FC6CFDF91CF911F910F91FF90F1
:103FB0000895CF92DF92EF92FF920F931F93CF93CA
:103FC000DF931F92CDB7DEB78091C9089091CA08E0
:103FD000892B51F06091E3087091E4088091E50825
:103FE0009091E6083ADD15C08091C7089091C80805
:103FF000892B29F08091E1089091E208FADBE091A9
:10400000DB08F091DC0890818091E008809589239D
:10401000808365E089EF97E023DF6091B00861500D
:104020008CEA98E08BDD2091B2083091B308C90189
:10403000079697FD079623E0959587952A95E1F7D2
:104040002091B0083091B108829F8001839F100DAC
:10405000929F100D1124E090CB08F090CC08809135
:10406000C9089091CA080E0D1F1D009709F44CC095
:104070002091CD0831E03093870720938607109276
:10408000850710928407DC01ED91FC910190F0818D
:10409000E02D60E41995670121E0FF24F3948091FD
:1040A000C9089091CA08C016D10661F12032C0F04B
:1040B000E8DC8091CD08F092870780938607109204
:1040C0008507109284078091C9089091CA08DC0185
:1040D000ED91FC910190F081E02D60E4199521E0D3
:1040E0008091C9089091CA08F60161916F01DC01C5
:1040F000ED91FC910190F081E02D298319952981A2
:104100002F5FCDCFBEDC43C0E091D908F091DA0833
:1041100090818091DF08892B8083E016F106B9F148
:10412000F70181917F012091C7083091C808232BA6
:1041300019F00E944814F1CF28E030E040E8E09107
:10414000D508F091D6089091DD08542F582319F026
:104150005081952B03C05081909595239083E091D9
:10416000D708F091D80850819091DE08952B908364
:10417000E091D708F091D80850819091DE08909591
:1041800095239083469521503109C9F6C6CF809179
:10419000C9089091CA08892B91F06091E708709145
:1041A000E8088091E9089091EA080F90DF91CF919B
:1041B0001F910F91FF90EF90DF90CF904ECCE09148
:1041C000DB08F091DC0890818091E008892B8083E6
:1041D0008091C7089091C808892B51F00F90DF910A
:1041E000CF911F910F91FF90EF90DF90CF9000CB78
:1041F0000F90DF91CF911F910F91FF90EF90DF9083
:10420000CF9008954F925F926F927F928F929F927C
:10421000AF92BF92EF92FF920F931F93CF937C01C7
:10422000C62F10E060E070E080E09FE31C1741F0D3
:1042300020E030E040E251E40E948F5E1F5FF6CF45
:104240002CEE31E548E050E40E94185E4B015C0121
:104250000E94365F2B013C010E94D35C9B01AC01A4
:10426000C501B4010E94175E4B015C012AE0B30155
:10427000A201C7010E9461348C01CC2359F0D701FF
:10428000ED91FC910190F081E02D6EE2C70119954E
:10429000080F191FCC2329F120E030E040E251E45F
:1042A000C501B4010E94345D2B013C010E94365FC0
:1042B0004B01A12CB12C2AE0B501A401C7010E9439
:1042C0006134080F191FC501B4010E94D35C9B0122
:1042D000AC01C301B2010E94175E4B015C01C150E9
:1042E000D9CFC801CF911F910F91FF90EF90BF9050
:1042F000AF909F908F907F906F905F904F900895B8
:104300002091B2083091B308C901079697FD07962E
:1043100023E0959587952A95E1F72091B008309193
:10432000B108829FA001839F500D929F500D1124D0
:1043300060E070E08091CB089091CC080C94BA6555
:10434000EF92FF920F931F93CF93DF938C017B012A
:10435000EC01CE01801B910B8E159F0524F48991F1
:104360000E944814F6CFDF91CF911F910F91FF90DB
:10437000EF9008952F923F924F925F926F927F92AB
:104380008F929F92AF92BF92CF92DF92EF92FF9265
:104390000F931F93CF93DF93CDB7DEB72B970FB655
:1043A000F894DEBF0FBECDBF922EA32EB42EC52E25
:1043B000D62E7B87882E792E098704E30E944D63D1
:1043C00029833A834B835C836D837E838F839887B5
:1043D00029813A8137709982EA2D4B2D5C2D6D2D04
:1043E0007B85882D8F7090E02115310509F0806163
:1043F000ACE2B4E07D01E21AF30A1E141F047CF45F
:104400000F2C000C000B110B292D3A2D4B2D5C2D80
:104410006D2D7B8590E00E9434392983E32F29811B
:104420003E2FA0E40E947263522EE32EF42E052F3D
:10443000162FB72FF82FE92F607820E030E040E00A
:1044400050E07B2F8F2F9E2FA0E00E94906371F58C
:10445000252D3E2D4F2D502F612F07E00E944D63DB
:1044600079018A011B012C012A87FF2DE42F612E7F
:10447000292D3A2D4B2D5C2D6D2D7B85882D972D6B
:104480000E9490633CF49701A801B101C2010E940F
:10449000906361F48985882389F089818F7771F031
:1044A0008091810781608093810708C080E10E942C
:1044B0000F386FEF7FEF8FEF9FEF04C06A857F2F7C
:1044C0008E2F962D2B960FB6F894DEBF0FBECDBF64
:1044D000DF91CF911F910F91FF90EF90DF90CF90E0
:1044E000BF90AF909F908F907F906F905F904F9014
:1044F0003F902F900895CF93DF93482F50E060E0D6
:1045000070E02AE088E897E00E946134EC016BE3F8
:1045100074E088E897E00E949F2C8C0F9D1FDF912C
:10452000CF9108954F925F926F927F928F929F9258
:10453000AF92BF92EF92FF920F93CF93DF937C01E4
:10454000EB0149015A010E9472110E94D35C2B01B8
:104550003C01F701A081B181A50194010E94FE5D9B
:104560000E94D35C9B01AC0160E070E080E89FE3B7
:104570000E948F5EA30192010E94345D20E030E032
:1045800040E85EE30E94345D0E947C5E0E94FC5E17
:10459000288339834A835B836C837D838E839F83E7
:1045A00002E00E9432630E94625FA30192010E94B6
:1045B0008F5E9B01AC0160E070E080E89FE30E94A9
:1045C0008F5E2B013C01C501B4010E94D35C9B01AD
:1045D000AC01C301B2010E948F5E0E94365FF701F9
:1045E00071836083DF91CF910F91FF90EF90BF9027
:1045F000AF909F908F907F906F905F904F900895B5
:10460000FC0144815581608171818CEA98E00C94B1
:1046100018322F923F924F925F926F927F928F92B9
:104620009F92AF92BF92CF92DF92EF92FF920F9341
:104630001F93CF93DF93CDB7DEB72A970FB6F894C9
:10464000DEBF0FBECDBF89E190E0A0E0B0E0809377
:10465000710890937208A0937308B09374088093C4
:10466000580890935908A0935A08B0935B08412CBE
:10467000512C212C312CCC24C394D12C47EE842EE8
:1046800043E0942E5EE3652E712C8091700890E0DB
:1046900090931502809314028091570890E09093B4
:1046A00013028093120287E898E00E944C318EE654
:1046B00098E00E944C3185E598E00E944C31809151
:1046C000870890918808892B49F08091150990916D
:1046D0001609019690931609809315098091150982
:1046E000909116090F9724F010921609109215094F
:1046F0002091DD063091DE06809115099091160912
:104700002115310549F40197C9F48DE090E09093AB
:1047100016098093150912C02130310519F4049748
:1047200069F4F3CF2330310549F4019799F4E5E0BA
:10473000F0E0F0931609E09315090CC0809115097B
:1047400090911609059731F48DE090E09093160949
:104750008093150980916E0890916F08009709F079
:104760001C018091700891E02916310419F481111F
:1047700059C108C0EFEF2E163E0609F053C1882339
:1047800009F450C1E0911509F0911609EF30F105D7
:1047900008F048C18827EE57FF4F8F4F0C94D66121
:1047A0002F5F3F4F243031052CF43093DE062093E9
:1047B000DD0638C11092DE061092DD0633C180910D
:1047C000DB069091DC060196853691052CF49093DA
:1047D000DC068093DB0604C01092DC061092DB0638
:1047E0008091DB069091DC06892B09F01BC180913A
:1047F000D9069091DA060A970CF014C1D092DC0623
:10480000C092DB060FC18091D9069091DA0601961D
:10481000883EF3E09F072CF49093DA068093D90644
:1048200004C01092DA061092D9068091DB069091AE
:10483000DC06892B09F0F6C08091D9069091DA0642
:104840000A970CF0EFC08AE090E09093DA0680932C
:10485000D906E8C02130310571F48091D7069091D6
:10486000D8060196853691050CF468C61092D806D4
:104870001092D706D7C02230310509F0D3C08091FD
:10488000D5069091D6060196853691052CF4909325
:10489000D6068093D506C6C01092D6061092D506CD
:1048A000C1C02230310509F0BDC08091D30690917E
:1048B000D4060196883EE3E09E072CF49093D4063C
:1048C0008093D306AFC01092D4061092D306AAC02C
:1048D0008091DF069091E00601968935F2E09F070E
:1048E0002CF49093E0068093DF069CC01092E006C3
:1048F0001092DF0697C08091E1069091E206019642
:10490000883E23E092072CF49093E2068093E10620
:1049100089C01092E2061092E10684C08091E306FD
:104920009091E4060196883EE3E09E072CF4909374
:10493000E4068093E30676C01092E4061092E30644
:1049400071C08091E5069091E60601968935F2E006
:104950009F072CF49093E6068093E50663C01092BF
:10496000E6061092E5065EC08091E7069091E806A3
:104970000196883E23E092072CF49093E8068093FA
:10498000E70650C01092E8061092E7064BC08091EF
:10499000E9069091EA060196883EE3E09E072CF432
:1049A0009093EA068093E9063DC01092EA061092C1
:1049B000E90638C080911002909111020196883E5C
:1049C000F3E09F072CF490931102809310022AC009
:1049D000D0921102C092100225C08091EB069091F6
:1049E000EC060196843091052CF49093EC068093AC
:1049F000EB0618C01092EC061092EB0613C02330A1
:104A0000310521F40E943516882361F08091DD067E
:104A10009091DE06039709F096C50E94D51488236D
:104A200009F491C580917008811102C0212C312CAC
:104A30008091550890915608009709F02C018091BB
:104A4000570891E04916510419F4811166C108C054
:104A5000EFEF4E165E0609F060C1882309F45DC1D0
:104A6000E0911509F0911609EF30F10508F055C1F4
:104A70008827EF56FF4F8F4F0C94D6618091DD064B
:104A80009091DE06019797FF02C083E090E090933B
:104A9000DE068093DD0641C18091DB069091DC0645
:104AA000019797FF02C084E690E09093DC06809324
:104AB000DB068091DB069091DC06181619060CF4D3
:104AC0002CC18091D9069091DA060A970CF025C185
:104AD00084E690E09093DC068093DB061EC1809113
:104AE000D9069091DA06019797FD05C09093DA06F2
:104AF0008093D90604C09092DA068092D9068091FC
:104B0000DB069091DC06181619060CF406C180919C
:104B1000D9069091DA060A970CF0FFC09092DA0657
:104B20008092D906FAC08091DD069091DE06813030
:104B3000910551F48091D7069091D806019797FF7F
:104B400015C584E690E012C5029709F0E6C0809191
:104B5000D5069091D606019797FF02C084E690E0B3
:104B60009093D6068093D506D8C08091DD069091AB
:104B7000DE06029709F0D1C08091D3069091D40649
:104B8000019797FD05C09093D4068093D306C5C0C6
:104B90009092D4068092D306C0C08091DF06909197
:104BA000E006019797FD05C09093E0068093DF062D
:104BB000B4C0E8E5F2E0F093E006E093DF06ADC0B4
:104BC0008091E1069091E206019797FD05C09093D0
:104BD000E2068093E106A1C09092E2068092E1068F
:104BE0009CC08091E3069091E406019797FD05C073
:104BF0009093E4068093E30690C09092E40680923E
:104C0000E3068BC08091E5069091E606019797FF39
:104C100002C088E592E09093E6068093E5067DC0A9
:104C20008091E7069091E806019797FD05C0909363
:104C3000E8068093E70671C09092E8068092E70646
:104C40006CC08091E9069091EA06019797FD05C036
:104C50009093EA068093E90660C09092EA068092FB
:104C6000E9065BC08091100290911102019718161D
:104C700019062CF490931102809310024EC090926A
:104C800011028092100249C08091EB069091EC06CF
:104C9000019797FD05C09093EC068093EB063DC00D
:104CA000E3E0F0E0F093EC06E093EB0636C0809191
:104CB000DD069091DE06039721F50E9435168111DD
:104CC00020C02BC00E9473070E941C180E94C409B8
:104CD0002A960FB6F894DEBF0FBECDBFDF91CF91FD
:104CE0001F910F91FF90EF90DF90CF90BF90AF900A
:104CF0009F908F907F906F905F904F903F902F90FC
:104D000008958091DD069091DE06039709F033C483
:104D10000E94D514882309F42EC48091570881116C
:104D200002C0412C512C80917008282F30E0409116
:104D30001402509115024217530721F0811102C04D
:104D40000E94C40980915708282F30E04091120238
:104D5000509113024217530721F0811102C00E94A3
:104D6000C409CEDA8091DD069091DE06019741F00C
:104D70008091DD069091DE06029709F0CFC05BC0FE
:104D800003E210E0F801EC5EF74F5F01449150E060
:104D9000485D5F4F21E030E0B8018CEA98E00E9466
:104DA0005F19F501449150E0475D5F4F21E030E02D
:104DB000B8018CEA98E00E945F19F5018491A30183
:104DC000481B510921E030E0B8018CEA98E00E94CC
:104DD0005F19F501A4904FE350E04A19510921E011
:104DE00030E0B8018CEA98E00E945F190F5F1F4F16
:104DF0000B35110509F0C6CF23E2A22EB12CF50127
:104E0000EC5EF74F849144918301081B110950E037
:104E1000485D5F4FEE24E394F12C9501B5018CEAD7
:104E200098E00E942546F3E0AF0EB11C2CE5A216D7
:104E3000B10429F79DCF03E210E0C8018552984FD5
:104E40005C01FC018491A301481B510921E030E081
:104E5000B8018CEA98E00E945F19F501A4904FE335
:104E600050E04A19510921E030E0B8018CEA98E09D
:104E70000E945F190F5F1F4F0B351105F1F6A12C32
:104E8000B12CC50186969A878987F501E250F84FC3
:104E9000F887EF83849166E00E94A86129853A85AE
:104EA000281B3109B5016D5D7F4FEE24E394F12C91
:104EB0000EE310E048E250E08CEA98E00E942546BC
:104EC000F501E150F84F8491EF81F8854491950107
:104ED000275D3F4F66E00E94A861281B3109842F9F
:104EE0000E94A86169857A85681B710908E210E053
:104EF0004EE350E08CEA98E00E942546F6E0AF0EC3
:104F0000B11CEF81F885849166E00E94A861A81A1F
:104F1000B108F5E3AF16B1040CF4B3CF82E080938F
:104F2000C0088093C108D092BF08C092BE08D0923A
:104F3000BD08C092BC081092B9081092B80810922F
:104F4000BB081092BA0861E376E08CEA98E00E9410
:104F5000E53481E08093C0088093C108D092BF08F7
:104F6000C092BE08D092BD08C092BC081092B90889
:104F70001092B80880E190E09093BB088093BA0843
:104F80006CE376E08CEA98E00E94E5346EE174E030
:104F90008CEA98E00E94E5348091150990911609F9
:104FA000892B41F41092BD081092BC08D092BF0822
:104FB000C092BE082091DD063091DE0646E0429F99
:104FC000C001439F900D1124835C974F19DBD09251
:104FD000BF08C092BE08D092BD08C092BC088091A4
:104FE000DD069091DE060197029708F017C1109236
:104FF000B9081092B80888E190E09093BB088093BC
:10500000BA0862E476E08CEA98E00E94E534D09237
:10501000BF08C092BE08D092BD08C092BC086EE125
:1050200074E08CEA98E00E94E53480911509909133
:1050300016098130910541F41092BD081092BC0808
:105040009093BF088093BE086091DB067091DC06E8
:10505000CE0101960E942907CE010196D1DACE0138
:1050600001960E94F833D092BF08C092BE08D09239
:10507000BD08C092BC08809115099091160902974D
:1050800021F41092BD081092BC086091D90670916D
:10509000DA06CE0101960E942907CE010196B0DA08
:1050A000CE0101960E94F833D092BF08C092BE088C
:1050B000D092BD08C092BC0869E476E08CEA98E022
:1050C0000E94E5341092B9081092B80880E290E08E
:1050D0009093BB088093BA080091DD061091DE061C
:1050E00001301105E1F56CE476E08CEA98E00E946D
:1050F000E5346EE174E08CEA98E00E94E53480913A
:10510000150990911609039741F41092BD08109269
:10511000BC081093BF080093BE084091D706509179
:10512000D806052E000C660B770B77FF05C08CEABE
:1051300098E00E94A93405C02AE08CEA98E00E9419
:105140006134D092BF08C092BE08D092BD08C09210
:10515000BC0863E576E08CEA98E00E94E534809133
:10516000DD069091DE06029709F058C065E576E00D
:105170008CEA98E00E94E5346EE174E08CEA98E0F5
:105180000E94E5348091150990911609039741F426
:105190001092BD081092BC08D092BF08C092BE0801
:1051A0006091D5067091D606CE0101960E9429071E
:1051B000CE01019625DACE0101960E94F833D092F5
:1051C000BF08C092BE08D092BD08C092BC088091B2
:1051D000150990911609049721F41092BD081092B8
:1051E000BC086091D3067091D406CE0101960E944E
:1051F0002907CE01019604DACE0101960E94F83308
:10520000D092BF08C092BE08D092BD08C092BC0820
:1052100069E476E08CEA98E00E94E5348091DD064E
:105220009091DE06039709F044C11092B9081092DC
:10523000B80888E190E09093BB088093BA08D092B8
:10524000BF08C092BE08D092BD08C092BC0860E6FC
:1052500076E08CEA98E00E94E534809115099091FF
:105260001609059741F41092BD081092BC08D0921F
:10527000BF08C092BE086091DF067091E006CE01C3
:1052800001960E942907CE010196BAD9CE01019656
:105290000E94F833D092BF08C092BE08D092BD08D9
:1052A000C092BC088091150990911609069721F4C7
:1052B0001092BD081092BC086091E1067091E20660
:1052C000CE0101960E942907CE01019699D9CE01FF
:1052D00001960E94F833D092BF08C092BE08D092C7
:1052E000BD08C092BC0880911509909116090797D6
:1052F00021F41092BD081092BC086091E3067091F1
:10530000E406CE0101960E942907CE0101960E9473
:105310007E4BCE0101960E94F833D092BF08C09216
:10532000BE08D092BD08C092BC086DE676E08CEA5B
:1053300098E00E94E5346EE174E08CEA98E00E9407
:10534000E5348091150990911609089741F410925F
:10535000BD081092BC08D092BF08C092BE086091F0
:10536000E5067091E606CE0101960E942907CE015E
:10537000019646D9CE0101960E94F833D092BF081B
:10538000C092BE08D092BD08C092BC088091150999
:1053900090911609099721F41092BD081092BC084B
:1053A0006091E7067091E806CE0101960E942907F8
:1053B000CE01019625D9CE0101960E94F833D092F4
:1053C000BF08C092BE08D092BD08C092BC088091B0
:1053D0001509909116090A9721F41092BD081092B0
:1053E000BC086091E9067091EA06CE0101960E9420
:1053F0002907CE0101960E947E4BCE0101960E94A4
:10540000F833D092BF08C092BE08D092BD08C092B7
:10541000BC0869E776E08CEA98E00E94E5346EE12A
:1054200074E08CEA98E00E94E5348091150990912F
:1054300016090B9741F41092BD081092BC08D09247
:10544000BF08C092BE086091100270911102CE0197
:1054500001960E942907CE010196D2D8CE0101966D
:105460000E94F833D092BF08C092BE08D092BD0807
:10547000C092BC0880911509909116090C9721F4EF
:105480001092BD081092BC082091EB063091EC06FA
:1054900046E0429FC001439F900D11248B5D974FC2
:1054A000AFD8D092BF08C092BE08D092BD08C092BB
:1054B000BC081092B9081092B80887E390E0909366
:1054C000BB088093BA0880911509909116090D9731
:1054D00041F41092BD081092BC08D092BF08C0924F
:1054E000BE086BE874E08CEA98E00E94D134D09258
:1054F000BF08C092BE08D092BD08C092BC0887E623
:1055000090E09093B9088093B80887E390E0909377
:10551000BB088093BA0880911509909116090E97DF
:1055200021F41092BD081092BC0860E974E08CEA86
:1055300098E00E94D1340E94D91FA7C89093D80642
:105540008093D7066FCA0E94D2170E9444110E940E
:10555000C40968EE73E080E090E00E943E368EE081
:1055600090E090931609809315095CCA9093D80631
:105570008093D706D2CB0E94D2170E9444110E947A
:10558000C40968EE73E080E090E00E943E368EE051
:1055900090E09093160980931509BFCBCF92DF92CC
:1055A000EF92FF92CF93DF93EB01FA01DC0120E44D
:1055B00032E44FE050E00E94E4616B017C0128EE90
:1055C00033E0DE010E94DE61AB01BC014C0D5D1DCC
:1055D0006E1D7F1DCF01FF0FAA0BBB0B480F591F7C
:1055E0006A1F7B1F405A56486140710981E041366D
:1055F0005F4B614C734208F080E0DF91CF91FF90E8
:10560000EF90DF90CF9008952F923F924F925F924C
:105610006F927F928F929F92AF92BF92CF92DF92C2
:10562000EF92FF920F931F93CF93DF93CDB7DEB727
:1056300027970FB6F894DEBF0FBECDBF29013A0100
:1056400069837A831C014801ED82CB821F823C2D45
:10565000330F330B3E839201A30169817A81C1012B
:10566000A0E00E949063B1F1AB80BE80CB2CDB2C1C
:10567000EB2CFB2C0B2D1B2D9201A30169817A8150
:10568000C1010E94626280E3820F8A3314F087E3D3
:10569000820F4F814F5F4C83F4016F81E60FF11D44
:1056A00067FDFA958083AB80BE80CB2CDB2CEB2C86
:1056B000FB2C0B2D1B2D9201A30169817A81C10165
:1056C0000E94646229013A0169837A831C018C81FA
:1056D0008F83C1CF20E3AF818A2F0A2E000C990B54
:1056E000BD81AB1744F4F401E80FF91F20839F81BB
:1056F0009F5F9F83F0CF2401480E591EA201F40141
:1057000020E030E04C0161E0861A9108B401621B90
:10571000730B2617370754F4608141505109DA01A1
:105720007C9171936C932F5F3F4FF0CFF201108209
:1057300027960FB6F894DEBF0FBECDBFDF91CF9195
:105740001F910F91FF90EF90DF90CF90BF90AF909F
:105750009F908F907F906F905F904F903F902F9091
:1057600008950895FC016370668B8481958126817C
:105770003781613039F0633029F091878087338732
:1057800022870895318720879387828708958F9293
:105790009F92AF92CF92EF92FF920F931F93CF936E
:1057A000DF93EC01262F898D9A8D009709F042C076
:1057B0006A3059F41D861C862D898E859F8538E0B8
:1057C000239F800D911D112443C06D3009F4AAC0A0
:1057D0008F898823C9F03C898C859D8546E0349F5C
:1057E000800D911D1124488559854817590764F487
:1057F0001D861C863D898E859F8548E0349F800DDF
:10580000911D11249F878E87EA88FB880889198952
:105810004E855F856C857D85AD88CC88CE010E94E4
:10582000B4482C898C859D8536E0239F800D911D81
:1058300011243EC06A3079F41D861C862D89FC0136
:105840003696E4918E859F852E9F800D911D1124A3
:105850009F878E8767C06D3009F464C0FC01349661
:105860003491631708F45EC03196E491E61708F4AA
:1058700059C0462F431B342FFC01329685909490DB
:1058800047E0349F800C911C1124F401329634912E
:105890003196E491332311F0E1110DC0F4013496F7
:1058A000E4912C898C859D85E29F800D911D1124AA
:1058B0009D878C8737C0F401359644915F895523C5
:1058C00019F15C89E32FF0E0E40FF11D47FDFA9533
:1058D0005E9FB0015F9F700D11244C855D85460F62
:1058E000571F688579856417750774F41D861C86B3
:1058F0003D89FC013696E4918E859F853E9F800D03
:10590000911D11249F878E87EA88FB880889198951
:105910004E855F856C857D85AD88CC88CE010E94E3
:10592000B448BCCF81E090E0DF91CF911F910F91FF
:10593000FF90EF90CF90AF909F908F90089561155A
:10594000710579F0FB0101900020E9F73197AF0173
:10595000461B570BDC01ED91FC910280F381E02D99
:10596000199480E090E008952F923F924F925F92B9
:105970006F927F928F929F92AF92BF92CF92DF925F
:10598000EF92FF920F931F93CF93DF93CDB7DEB7C4
:10599000AB970FB6F894DEBF0FBECDBF4C017E8F24
:1059A0006D8FDC011296BC91B987FC01F381FA87F7
:1059B000DC011496BC91BD87FC01F581FE87DC01FA
:1059C0001696BC91BF87FC01F781F88BDC01189615
:1059D000BC91B98BFC01F185FA8B29853A854D85FF
:1059E0005E856F8578898B2F9F2FA0E00E94906342
:1059F0001CF56FEF7FEFCB010E94373759016A0129
:105A00007B018C0129853A854D855E856F85788976
:105A100089899A890E94AF3A29873A874D875E879C
:105A20006F87788B898B9A8B8DE28093170901E0C1
:105A300010E01C8B0B8B02C01C8A1B8AD4011296AF
:105A4000DC9012971396EC9013971496FC90149791
:105A500015961C9115971696BC91F401C780308459
:105A600021842D2D3E2D4F2D512F6B2F7C2D832DDD
:105A70008F7090E0A0E00E94906391F0832D922DB2
:105A800004E30E944D632901F7E05F220FEF401607
:105A900007E05006C9F469E976E087E199E082C33E
:105AA0002D2D3E2D4F2D512F6B2F7C2D832D922D83
:105AB00004E30E944D63290127E052223FEF431681
:105AC00037E0530609F468C32D2D3E2D4F2D512F7D
:105AD0006B2F7C2D832D922D04E30E944D63490191
